{
  "contractName": "FlightSuretyData",
  "abi": [
    {
      "constant": true,
      "inputs": [],
      "name": "AIRLINE_FUND_FEE",
      "outputs": [
        {
          "name": "",
          "type": "uint256"
        }
      ],
      "payable": false,
      "stateMutability": "view",
      "type": "function",
      "signature": "0x9f1afb9d"
    },
    {
      "inputs": [],
      "payable": false,
      "stateMutability": "nonpayable",
      "type": "constructor",
      "signature": "constructor"
    },
    {
      "payable": true,
      "stateMutability": "payable",
      "type": "fallback"
    },
    {
      "anonymous": false,
      "inputs": [
        {
          "indexed": false,
          "name": "success",
          "type": "bool"
        },
        {
          "indexed": false,
          "name": "votes",
          "type": "uint256"
        }
      ],
      "name": "evntRegisterAirline",
      "type": "event",
      "signature": "0x1d9283fe8ab6f15929c46a70a3d4d3808f4f9a1d2ec28a77e88f8c0524317968"
    },
    {
      "constant": true,
      "inputs": [],
      "name": "isOperational",
      "outputs": [
        {
          "name": "",
          "type": "bool"
        }
      ],
      "payable": false,
      "stateMutability": "view",
      "type": "function",
      "signature": "0xcd905dff"
    },
    {
      "constant": false,
      "inputs": [
        {
          "name": "mode",
          "type": "bool"
        }
      ],
      "name": "setOperatingStatus",
      "outputs": [],
      "payable": false,
      "stateMutability": "nonpayable",
      "type": "function",
      "signature": "0x110466ed"
    },
    {
      "constant": true,
      "inputs": [
        {
          "name": "caller",
          "type": "address"
        }
      ],
      "name": "isAuthorized",
      "outputs": [
        {
          "name": "",
          "type": "bool"
        }
      ],
      "payable": false,
      "stateMutability": "view",
      "type": "function",
      "signature": "0xfe9fbb80"
    },
    {
      "constant": true,
      "inputs": [
        {
          "name": "airline",
          "type": "address"
        }
      ],
      "name": "isAirline",
      "outputs": [
        {
          "name": "",
          "type": "bool"
        }
      ],
      "payable": false,
      "stateMutability": "view",
      "type": "function",
      "signature": "0x0e248a11"
    },
    {
      "constant": true,
      "inputs": [
        {
          "name": "airline",
          "type": "address"
        }
      ],
      "name": "isAirlineFunded",
      "outputs": [
        {
          "name": "",
          "type": "bool"
        }
      ],
      "payable": false,
      "stateMutability": "view",
      "type": "function",
      "signature": "0xf53b6d65"
    },
    {
      "constant": true,
      "inputs": [],
      "name": "owner",
      "outputs": [
        {
          "name": "",
          "type": "address"
        }
      ],
      "payable": false,
      "stateMutability": "view",
      "type": "function",
      "signature": "0x8da5cb5b"
    },
    {
      "constant": false,
      "inputs": [
        {
          "name": "caller",
          "type": "address"
        }
      ],
      "name": "authorizeCaller",
      "outputs": [],
      "payable": false,
      "stateMutability": "nonpayable",
      "type": "function",
      "signature": "0x2c388d5d"
    },
    {
      "constant": false,
      "inputs": [
        {
          "name": "airline",
          "type": "address"
        },
        {
          "name": "_sender",
          "type": "address"
        }
      ],
      "name": "registerAirline",
      "outputs": [],
      "payable": false,
      "stateMutability": "nonpayable",
      "type": "function",
      "signature": "0xc7ba5018"
    },
    {
      "constant": false,
      "inputs": [
        {
          "name": "airline",
          "type": "address"
        },
        {
          "name": "flightCode",
          "type": "string"
        },
        {
          "name": "timestamp",
          "type": "uint256"
        }
      ],
      "name": "registerFlight",
      "outputs": [],
      "payable": false,
      "stateMutability": "nonpayable",
      "type": "function",
      "signature": "0x3cc0be9c"
    },
    {
      "constant": false,
      "inputs": [
        {
          "name": "passenger",
          "type": "address"
        },
        {
          "name": "airline",
          "type": "address"
        },
        {
          "name": "flight",
          "type": "string"
        },
        {
          "name": "timestamp",
          "type": "uint256"
        }
      ],
      "name": "buy",
      "outputs": [],
      "payable": true,
      "stateMutability": "payable",
      "type": "function",
      "signature": "0x35183170"
    },
    {
      "constant": true,
      "inputs": [
        {
          "name": "passenger",
          "type": "address"
        },
        {
          "name": "airline",
          "type": "address"
        },
        {
          "name": "flight",
          "type": "string"
        },
        {
          "name": "timestamp",
          "type": "uint256"
        }
      ],
      "name": "boughtPassenger",
      "outputs": [
        {
          "name": "",
          "type": "uint256"
        }
      ],
      "payable": false,
      "stateMutability": "view",
      "type": "function",
      "signature": "0x12bc88ce"
    },
    {
      "constant": true,
      "inputs": [
        {
          "name": "passenger",
          "type": "address"
        }
      ],
      "name": "payoutPassenger",
      "outputs": [
        {
          "name": "",
          "type": "uint256"
        }
      ],
      "payable": false,
      "stateMutability": "view",
      "type": "function",
      "signature": "0x686a5167"
    },
    {
      "constant": true,
      "inputs": [
        {
          "name": "airline",
          "type": "address"
        },
        {
          "name": "flight",
          "type": "string"
        },
        {
          "name": "timestamp",
          "type": "uint256"
        }
      ],
      "name": "flightPassenger",
      "outputs": [
        {
          "name": "",
          "type": "address"
        }
      ],
      "payable": false,
      "stateMutability": "view",
      "type": "function",
      "signature": "0xcf176373"
    },
    {
      "constant": false,
      "inputs": [
        {
          "name": "airline",
          "type": "address"
        },
        {
          "name": "flight",
          "type": "string"
        },
        {
          "name": "timestamp",
          "type": "uint256"
        }
      ],
      "name": "creditInsurees",
      "outputs": [],
      "payable": false,
      "stateMutability": "nonpayable",
      "type": "function",
      "signature": "0xc8820a70"
    },
    {
      "constant": false,
      "inputs": [
        {
          "name": "passenger",
          "type": "address"
        },
        {
          "name": "airline",
          "type": "address"
        },
        {
          "name": "flightCode",
          "type": "string"
        },
        {
          "name": "timestamp",
          "type": "uint256"
        }
      ],
      "name": "pay",
      "outputs": [],
      "payable": true,
      "stateMutability": "payable",
      "type": "function",
      "signature": "0x27b69fec"
    },
    {
      "constant": false,
      "inputs": [
        {
          "name": "airline",
          "type": "address"
        }
      ],
      "name": "fund",
      "outputs": [],
      "payable": true,
      "stateMutability": "payable",
      "type": "function",
      "signature": "0x23024408"
    },
    {
      "constant": true,
      "inputs": [
        {
          "name": "passenger",
          "type": "address"
        }
      ],
      "name": "checkCredit",
      "outputs": [
        {
          "name": "",
          "type": "uint256"
        }
      ],
      "payable": false,
      "stateMutability": "view",
      "type": "function",
      "signature": "0x29851d6b"
    }
  ],
  "bytecode": "0x60806040526001600060146101000a81548160ff02191690831515021790555060008060156101000a81548163ffffffff021916908363ffffffff16021790555034801561004c57600080fd5b50336000806101000a81548173ffffffffffffffffffffffffffffffffffffffff021916908373ffffffffffffffffffffffffffffffffffffffff1602179055506121098061009c6000396000f3006080604052600436106100fc576000357c0100000000000000000000000000000000000000000000000000000000900463ffffffff1680630e248a11146100fe578063110466ed1461015957806312bc88ce14610188578063230244081461022157806327b69fec1461025757806329851d6b146102cf5780632c388d5d1461032657806335183170146103695780633cc0be9c146103e1578063686a5167146104465780638da5cb5b1461049d5780639f1afb9d146104f4578063c7ba50181461051f578063c8820a7014610582578063cd905dff146105e7578063cf17637314610616578063f53b6d65146106bb578063fe9fbb8014610716575b005b34801561010a57600080fd5b5061013f600480360381019080803573ffffffffffffffffffffffffffffffffffffffff169060200190929190505050610771565b604051808215151515815260200191505060405180910390f35b34801561016557600080fd5b506101866004803603810190808035151590602001909291905050506107ca565b005b34801561019457600080fd5b5061020b600480360381019080803573ffffffffffffffffffffffffffffffffffffffff169060200190929190803573ffffffffffffffffffffffffffffffffffffffff169060200190929190803590602001908201803590602001919091929391929390803590602001909291905050506108ab565b6040518082815260200191505060405180910390f35b610255600480360381019080803573ffffffffffffffffffffffffffffffffffffffff1690602001909291905050506109e7565b005b6102cd600480360381019080803573ffffffffffffffffffffffffffffffffffffffff169060200190929190803573ffffffffffffffffffffffffffffffffffffffff16906020019092919080359060200190820180359060200191909192939192939080359060200190929190505050610bbe565b005b3480156102db57600080fd5b50610310600480360381019080803573ffffffffffffffffffffffffffffffffffffffff169060200190929190505050610e04565b6040518082815260200191505060405180910390f35b34801561033257600080fd5b50610367600480360381019080803573ffffffffffffffffffffffffffffffffffffffff169060200190929190505050610e4d565b005b6103df600480360381019080803573ffffffffffffffffffffffffffffffffffffffff169060200190929190803573ffffffffffffffffffffffffffffffffffffffff16906020019092919080359060200190820180359060200191909192939192939080359060200190929190505050610ea8565b005b3480156103ed57600080fd5b50610444600480360381019080803573ffffffffffffffffffffffffffffffffffffffff1690602001909291908035906020019082018035906020019190919293919293908035906020019092919050505061112d565b005b34801561045257600080fd5b50610487600480360381019080803573ffffffffffffffffffffffffffffffffffffffff1690602001909291905050506113fd565b6040518082815260200191505060405180910390f35b3480156104a957600080fd5b506104b2611446565b604051808273ffffffffffffffffffffffffffffffffffffffff1673ffffffffffffffffffffffffffffffffffffffff16815260200191505060405180910390f35b34801561050057600080fd5b5061050961146f565b6040518082815260200191505060405180910390f35b34801561052b57600080fd5b50610580600480360381019080803573ffffffffffffffffffffffffffffffffffffffff169060200190929190803573ffffffffffffffffffffffffffffffffffffffff16906020019092919050505061147b565b005b34801561058e57600080fd5b506105e5600480360381019080803573ffffffffffffffffffffffffffffffffffffffff169060200190929190803590602001908201803590602001919091929391929390803590602001909291905050506116ad565b005b3480156105f357600080fd5b506105fc61191b565b604051808215151515815260200191505060405180910390f35b34801561062257600080fd5b50610679600480360381019080803573ffffffffffffffffffffffffffffffffffffffff16906020019092919080359060200190820180359060200191909192939192939080359060200190929190505050611931565b604051808273ffffffffffffffffffffffffffffffffffffffff1673ffffffffffffffffffffffffffffffffffffffff16815260200191505060405180910390f35b3480156106c757600080fd5b506106fc600480360381019080803573ffffffffffffffffffffffffffffffffffffffff1690602001909291905050506119d2565b604051808215151515815260200191505060405180910390f35b34801561072257600080fd5b50610757600480360381019080803573ffffffffffffffffffffffffffffffffffffffff169060200190929190505050611a2b565b604051808215151515815260200191505060405180910390f35b6000600160008373ffffffffffffffffffffffffffffffffffffffff1673ffffffffffffffffffffffffffffffffffffffff16815260200190815260200160002060000160009054906101000a900460ff169050919050565b6000809054906101000a900473ffffffffffffffffffffffffffffffffffffffff1673ffffffffffffffffffffffffffffffffffffffff163373ffffffffffffffffffffffffffffffffffffffff1614151561088e576040517f08c379a000000000000000000000000000000000000000000000000000000000815260040180806020018281038252601c8152602001807f43616c6c6572206973206e6f7420636f6e7472616374206f776e65720000000081525060200191505060405180910390fd5b80600060146101000a81548160ff02191690831515021790555050565b60008060006108ed8787878080601f01602080910402602001604051908101604052809392919081815260200183838082843782019150505050505086611a81565b91508782604051602001808373ffffffffffffffffffffffffffffffffffffffff1673ffffffffffffffffffffffffffffffffffffffff166c010000000000000000000000000281526014018260001916600019168152602001925050506040516020818303038152906040526040518082805190602001908083835b60208310151561098f578051825260208201915060208101905060208303925061096a565b6001836020036101000a03801982511681845116808217855250505050505090500191505060405180910390209050600660008260001916600019168152602001908152602001600020549250505095945050505050565b6109f081610771565b1515610a64576040517f08c379a00000000000000000000000000000000000000000000000000000000081526004018080602001828103825260188152602001807f4e6f7420612072656769737465726564206169726c696e65000000000000000081525060200191505060405180910390fd5b610a6d816119d2565b151515610ae2576040517f08c379a00000000000000000000000000000000000000000000000000000000081526004018080602001828103825260198152602001807f4169726c696e6520697320616c72656164792046756e6465640000000000000081525060200191505060405180910390fd5b678ac7230489e8000034141515610b61576040517f08c379a000000000000000000000000000000000000000000000000000000000815260040180806020018281038252601b8152602001807f506c65617365207061792074686520657861637420616d6f756e74000000000081525060200191505060405180910390fd5b60018060008373ffffffffffffffffffffffffffffffffffffffff1673ffffffffffffffffffffffffffffffffffffffff16815260200190815260200160002060000160016101000a81548160ff02191690831515021790555050565b6000806000600860008973ffffffffffffffffffffffffffffffffffffffff1673ffffffffffffffffffffffffffffffffffffffff16815260200190815260200160002054111515610c9e576040517f08c379a00000000000000000000000000000000000000000000000000000000081526004018080602001828103825260288152602001807f546869732061646472657373206973206e6f7420637265646974656420616e7981526020017f20616d6f756e742100000000000000000000000000000000000000000000000081525060400191505060405180910390fd5b610cdb8686868080601f01602080910402602001604051908101604052809392919081815260200183838082843782019150505050505085611a81565b9150600860008873ffffffffffffffffffffffffffffffffffffffff1673ffffffffffffffffffffffffffffffffffffffff1681526020019081526020016000205490508673ffffffffffffffffffffffffffffffffffffffff166108fc829081150290604051600060405180830381858888f19350505050158015610d65573d6000803e3d6000fd5b50610db881600860008a73ffffffffffffffffffffffffffffffffffffffff1673ffffffffffffffffffffffffffffffffffffffff16815260200190815260200160002054611ba690919063ffffffff16565b600860008973ffffffffffffffffffffffffffffffffffffffff1673ffffffffffffffffffffffffffffffffffffffff1681526020019081526020016000208190555050505050505050565b6000600860008373ffffffffffffffffffffffffffffffffffffffff1673ffffffffffffffffffffffffffffffffffffffff168152602001908152602001600020549050919050565b6001600260008373ffffffffffffffffffffffffffffffffffffffff1673ffffffffffffffffffffffffffffffffffffffff16815260200190815260200160002060006101000a81548160ff02191690831515021790555050565b6000806000670de0b6b3a76400003411151515610f2d576040517f08c379a000000000000000000000000000000000000000000000000000000000815260040180806020018281038252601b8152602001807f416d6f756e7420657863656564206d6178696d756d2076616c7565000000000081525060200191505060405180910390fd5b610f6a8787878080601f01602080910402602001604051908101604052809392919081815260200183838082843782019150505050505086611a81565b92508783604051602001808373ffffffffffffffffffffffffffffffffffffffff1673ffffffffffffffffffffffffffffffffffffffff166c010000000000000000000000000281526014018260001916600019168152602001925050506040516020818303038152906040526040518082805190602001908083835b60208310151561100c5780518252602082019150602081019050602083039250610fe7565b6001836020036101000a03801982511681845116808217855250505050505090500191505060405180910390209150600660008360001916600019168152602001908152602001600020549050670de0b6b3a76400006110753483611bbf90919063ffffffff16565b1115151561108257600080fd5b348101600660008460001916600019168152602001908152602001600020819055506007600084600019166000191681526020019081526020016000208890806001815401808255809150509060018203906000526020600020016000909192909190916101000a81548173ffffffffffffffffffffffffffffffffffffffff021916908373ffffffffffffffffffffffffffffffffffffffff160217905550505050505050505050565b6000611138856119d2565b15156111d2576040517f08c379a00000000000000000000000000000000000000000000000000000000081526004018080602001828103825260248152602001807f4f6e6c792066756e646564206169726c696e65732063616e207061727469636981526020017f706174650000000000000000000000000000000000000000000000000000000081525060400191505060405180910390fd5b61120f8585858080601f01602080910402602001604051908101604052809392919081815260200183838082843782019150505050505084611a81565b905060056000826000191660001916815260200190815260200160002060000160009054906101000a900460ff161515156112b2576040517f08c379a000000000000000000000000000000000000000000000000000000000815260040180806020018281038252601c8152602001807f466c6967687420697320616c726561647920726567697374657265640000000081525060200191505060405180910390fd5b60a060405190810160405280600115158152602001600060ff16815260200185858080601f01602080910402602001604051908101604052809392919081815260200183838082843782019150505050505081526020018381526020018673ffffffffffffffffffffffffffffffffffffffff1681525060056000836000191660001916815260200190815260200160002060008201518160000160006101000a81548160ff02191690831515021790555060208201518160000160016101000a81548160ff021916908360ff16021790555060408201518160010190805190602001906113a1929190612038565b506060820151816002015560808201518160030160006101000a81548173ffffffffffffffffffffffffffffffffffffffff021916908373ffffffffffffffffffffffffffffffffffffffff1602179055509050505050505050565b6000600860008373ffffffffffffffffffffffffffffffffffffffff1673ffffffffffffffffffffffffffffffffffffffff168152602001908152602001600020549050919050565b60008060009054906101000a900473ffffffffffffffffffffffffffffffffffffffff16905090565b678ac7230489e8000081565b60008061148784610771565b1515156114fc576040517f08c379a000000000000000000000000000000000000000000000000000000000815260040180806020018281038252601a8152602001807f4169726c696e6520616c7265616479207265676973746572656400000000000081525060200191505060405180910390fd5b604080519081016040528060001515815260200160001515815250600160008673ffffffffffffffffffffffffffffffffffffffff1673ffffffffffffffffffffffffffffffffffffffff16815260200190815260200160002060008201518160000160006101000a81548160ff02191690831515021790555060208201518160000160016101000a81548160ff0219169083151502179055509050506115a38484611bdb565b809250819350505081156116645760018060008673ffffffffffffffffffffffffffffffffffffffff1673ffffffffffffffffffffffffffffffffffffffff16815260200190815260200160002060000160006101000a81548160ff0219169083151502179055506001600260008673ffffffffffffffffffffffffffffffffffffffff1673ffffffffffffffffffffffffffffffffffffffff16815260200190815260200160002060006101000a81548160ff0219169083151502179055505b7f1d9283fe8ab6f15929c46a70a3d4d3808f4f9a1d2ec28a77e88f8c0524317968828260405180831515151581526020018281526020019250505060405180910390a150505050565b6000806000806000806116f38a8a8a8080601f01602080910402602001604051908101604052809392919081815260200183838082843782019150505050505089611a81565b955060076000876000191660001916815260200190815260200160002094505b848054905084101561190f57848481548110151561172d57fe5b9060005260206000200160009054906101000a900473ffffffffffffffffffffffffffffffffffffffff1692508286604051602001808373ffffffffffffffffffffffffffffffffffffffff1673ffffffffffffffffffffffffffffffffffffffff166c010000000000000000000000000281526014018260001916600019168152602001925050506040516020818303038152906040526040518082805190602001908083835b6020831015156117fa57805182526020820191506020810190506020830392506117d5565b6001836020036101000a0380198251168184511680821785525050505050509050019150506040518091039020915061186b600261185d600360066000876000191660001916815260200190815260200160002054611fea90919063ffffffff16565b61202290919063ffffffff16565b90506118bf81600860008673ffffffffffffffffffffffffffffffffffffffff1673ffffffffffffffffffffffffffffffffffffffff16815260200190815260200160002054611bbf90919063ffffffff16565b600860008573ffffffffffffffffffffffffffffffffffffffff1673ffffffffffffffffffffffffffffffffffffffff168152602001908152602001600020819055508380600101945050611713565b50505050505050505050565b60008060149054906101000a900460ff16905090565b6000806119718686868080601f01602080910402602001604051908101604052809392919081815260200183838082843782019150505050505085611a81565b9050600760008260001916600019168152602001908152602001600020600081548110151561199c57fe5b9060005260206000200160009054906101000a900473ffffffffffffffffffffffffffffffffffffffff16915050949350505050565b6000600160008373ffffffffffffffffffffffffffffffffffffffff1673ffffffffffffffffffffffffffffffffffffffff16815260200190815260200160002060000160019054906101000a900460ff169050919050565b6000600260008373ffffffffffffffffffffffffffffffffffffffff1673ffffffffffffffffffffffffffffffffffffffff16815260200190815260200160002060009054906101000a900460ff169050919050565b6000838383604051602001808473ffffffffffffffffffffffffffffffffffffffff1673ffffffffffffffffffffffffffffffffffffffff166c0100000000000000000000000002815260140183805190602001908083835b602083101515611aff5780518252602082019150602081019050602083039250611ada565b6001836020036101000a03801982511681845116808217855250505050505090500182815260200193505050506040516020818303038152906040526040518082805190602001908083835b602083101515611b705780518252602082019150602081019050602083039250611b4b565b6001836020036101000a038019825116818451168082178552505050505050905001915050604051809103902090509392505050565b6000828211151515611bb457fe5b818303905092915050565b60008183019050828110151515611bd257fe5b80905092915050565b600080600080601581819054906101000a900463ffffffff168092919060010191906101000a81548163ffffffff021916908363ffffffff16021790555050600463ffffffff16600060159054906101000a900463ffffffff1663ffffffff16111515611c515760018080905092509250611fe2565b6000601581819054906101000a900463ffffffff16809291906001900391906101000a81548163ffffffff021916908363ffffffff160217905550508385604051602001808373ffffffffffffffffffffffffffffffffffffffff1673ffffffffffffffffffffffffffffffffffffffff166c010000000000000000000000000281526014018273ffffffffffffffffffffffffffffffffffffffff1673ffffffffffffffffffffffffffffffffffffffff166c01000000000000000000000000028152601401925050506040516020818303038152906040526040518082805190602001908083835b602083101515611d605780518252602082019150602081019050602083039250611d3b565b6001836020036101000a0380198251168184511680821785525050505050509050019150506040518091039020905060036000826000191660001916815260200190815260200160002060009054906101000a900460ff161515611f9b57600160036000836000191660001916815260200190815260200160002060006101000a81548160ff021916908315150217905550611e456001600460008873ffffffffffffffffffffffffffffffffffffffff1673ffffffffffffffffffffffffffffffffffffffff16815260200190815260200160002054611bbf90919063ffffffff16565b600460008773ffffffffffffffffffffffffffffffffffffffff1673ffffffffffffffffffffffffffffffffffffffff16815260200190815260200160002081905550603263ffffffff16611f0d600060159054906101000a900463ffffffff1663ffffffff16611eff6064600460008b73ffffffffffffffffffffffffffffffffffffffff1673ffffffffffffffffffffffffffffffffffffffff16815260200190815260200160002054611fea90919063ffffffff16565b61202290919063ffffffff16565b101515611f9a576000601581819054906101000a900463ffffffff168092919060010191906101000a81548163ffffffff021916908363ffffffff160217905550506001600460008773ffffffffffffffffffffffffffffffffffffffff1673ffffffffffffffffffffffffffffffffffffffff1681526020019081526020016000205492509250611fe2565b5b6000600460008773ffffffffffffffffffffffffffffffffffffffff1673ffffffffffffffffffffffffffffffffffffffff16815260200190815260200160002054925092505b509250929050565b600080831415611ffd576000905061201c565b818302905081838281151561200e57fe5b0414151561201857fe5b8090505b92915050565b6000818381151561202f57fe5b04905092915050565b828054600181600116156101000203166002900490600052602060002090601f016020900481019282601f1061207957805160ff19168380011785556120a7565b828001600101855582156120a7579182015b828111156120a657825182559160200191906001019061208b565b5b5090506120b491906120b8565b5090565b6120da91905b808211156120d65760008160009055506001016120be565b5090565b905600a165627a7a72305820ac00f519e52fbb245e5be9e019f2136b51f8d91f69535973dab66cbf6e6bd4c00029",
  "source": "pragma solidity ^0.4.25;\r\n\r\nimport \"../node_modules/openzeppelin-solidity/contracts/math/SafeMath.sol\";\r\n\r\ncontract FlightSuretyData {\r\n    using SafeMath for uint256;\r\n\r\n    /********************************************************************************************/\r\n    /*                                       DATA VARIABLES                                     */\r\n    /********************************************************************************************/\r\n\r\n    address private contractOwner;                              // Account used to deploy contract\r\n    bool private operational = true;                            // Blocks all state changes throughout the contract if false\r\n\r\n    uint32 private cntAirlines = 0;                                     // number of registered airlines\r\n    uint32 private constant AIRLINE_COUNT_THRESHOLD = 4;\r\n    uint32 private constant AIRLINE_REGISTER_PCT_THRESHOLD = 50;  // 50% consensus for registering 5th airline\r\n    uint256 public constant AIRLINE_FUND_FEE = 10 ether;           \r\n\r\n    // Flight status codees\r\n    uint8 private constant STATUS_CODE_UNKNOWN = 0;\r\n    uint8 private constant STATUS_CODE_ON_TIME = 10;\r\n    uint8 private constant STATUS_CODE_LATE_AIRLINE = 20;\r\n    uint8 private constant STATUS_CODE_LATE_WEATHER = 30;\r\n    uint8 private constant STATUS_CODE_LATE_TECHNICAL = 40;\r\n    uint8 private constant STATUS_CODE_LATE_OTHER = 50;\r\n\r\n    struct Airline {\r\n        bool isRegistered;\r\n        bool isFunded;\r\n    }\r\n\r\n    struct Flight {\r\n        bool isRegistered;\r\n        uint8 statusCode;\r\n        string flightCode;\r\n        uint256 updatedTimestamp;        \r\n        address airline;\r\n    }  \r\n\r\n    mapping(address => Airline) private airlines;               // added airlines\r\n    mapping(address => bool) private authorized;                // authorized airlines\r\n    mapping(bytes32 => bool) private addressVoted;              // \r\n    mapping(address => uint256) private votes;                  // votes of airline during register process\r\n    mapping(bytes32 => Flight) flights;                         // list of flights\r\n    mapping(bytes32 => uint256) private passengerAmount;        // Insurance amount that passenger has paid for specific flight\r\n    mapping(bytes32 => address[]) private flightPassengers;      // list of insured passengers for specific flight\r\n    mapping(address => uint256) private passengerPayout;        // Amount to credit passenger of delayed flight\r\n\r\n\r\n    /********************************************************************************************/\r\n    /*                                       EVENT DEFINITIONS                                  */\r\n    /********************************************************************************************/\r\n\r\n\r\n    /**\r\n    * @dev Constructor\r\n    *      The deploying account becomes contractOwner\r\n    */\r\n    constructor\r\n                                (\r\n                                ) \r\n                                public \r\n    {\r\n        contractOwner = msg.sender;\r\n    }\r\n\r\n\r\n    event evntRegisterAirline(bool success, uint256 votes);\r\n\r\n    /********************************************************************************************/\r\n    /*                                       FUNCTION MODIFIERS                                 */\r\n    /********************************************************************************************/\r\n\r\n    // Modifiers help avoid duplication of code. They are typically used to validate something\r\n    // before a function is allowed to be executed.\r\n\r\n    /**\r\n    * @dev Modifier that requires the \"operational\" boolean variable to be \"true\"\r\n    *      This is used on all state changing functions to pause the contract in \r\n    *      the event there is an issue that needs to be fixed\r\n    */\r\n    modifier requireIsOperational() \r\n    {\r\n        require(operational, \"Contract is currently not operational\");\r\n        _;  // All modifiers require an \"_\" which indicates where the function body will be added\r\n    }\r\n\r\n    /**\r\n    * @dev Modifier that requires the \"ContractOwner\" account to be the function caller\r\n    */\r\n    modifier requireContractOwner()\r\n    {\r\n        require(msg.sender == contractOwner, \"Caller is not contract owner\");\r\n        _;\r\n    }\r\n\r\n    /********************************************************************************************/\r\n    /*                                       UTILITY FUNCTIONS                                  */\r\n    /********************************************************************************************/\r\n\r\n    /**\r\n    * @dev Get operating status of contract\r\n    *\r\n    * @return A bool that is the current operating status\r\n    */      \r\n    function isOperational() \r\n                            public \r\n                            view \r\n                            returns(bool) \r\n    {\r\n        return operational;\r\n    }\r\n\r\n\r\n    /**\r\n    * @dev Sets contract operations on/off\r\n    *\r\n    * When operational mode is disabled, all write transactions except for this one will fail\r\n    */    \r\n    function setOperatingStatus\r\n                            (\r\n                                bool mode\r\n                            ) \r\n                            external\r\n                            requireContractOwner \r\n    {\r\n        operational = mode;\r\n    }\r\n\r\n\r\n    /**\r\n    * @dev Get if address is authorized to perform certain operations\r\n    *\r\n    * \r\n    */    \r\n\r\n    function isAuthorized\r\n                    (\r\n                        address caller\r\n                    ) \r\n                        public \r\n                        view \r\n                        returns(bool) \r\n    {\r\n        return authorized[caller];\r\n    }\r\n\r\n\r\n    /**\r\n    * @dev Checks if airline is registered\r\n    *\r\n    * @return A bool \r\n    */\r\n\r\n    function isAirline\r\n                    (\r\n                        address airline\r\n                    ) \r\n                        public \r\n                        view \r\n                        returns(bool) \r\n    {\r\n        return airlines[airline].isRegistered;\r\n    }\r\n\r\n   /**\r\n    * @dev Checks if airline is funded\r\n    *\r\n    * @return A bool \r\n    */      \r\n\r\n    function isAirlineFunded\r\n                    (\r\n                        address airline\r\n                    ) \r\n                        public \r\n                        view \r\n                        returns(bool) \r\n    {\r\n        return airlines[airline].isFunded;\r\n    }\r\n\r\n\r\n   /**\r\n    * @dev Checks whether the airline to be added has consensus, \r\n    * according to the specifications\r\n    *\r\n    * @return A bool \r\n    */\r\n\r\n    function consensusAirline                      \r\n                    (\r\n                        address airline,\r\n                        address _sender\r\n                    )\r\n                        internal\r\n                        returns(bool, uint256)\r\n    {\r\n        cntAirlines++;\r\n        if (cntAirlines <= AIRLINE_COUNT_THRESHOLD){\r\n            return (true, 1);\r\n        }\r\n        cntAirlines--;\r\n        bytes32 votedKey = keccak256(abi.encodePacked(_sender, airline));\r\n        // If a different airline is adding this one, increase the votes\r\n        if (!addressVoted[votedKey]){\r\n            addressVoted[votedKey] = true;\r\n            votes[airline] = votes[airline].add(1);\r\n\r\n            if ((votes[airline].mul(100)).div(cntAirlines) >= AIRLINE_REGISTER_PCT_THRESHOLD){\r\n                cntAirlines++;\r\n                return (true, votes[airline]);\r\n            }\r\n        }\r\n        return (false, votes[airline]);\r\n    }\r\n\r\n    function owner() external view returns (address){\r\n        return contractOwner;\r\n    }\r\n\r\n    /********************************************************************************************/\r\n    /*                                     SMART CONTRACT FUNCTIONS                             */\r\n    /********************************************************************************************/\r\n\r\n    /**\r\n    * @dev Authorizes the contract creator to create the first airline entry\r\n    *\r\n    */    \r\n    function authorizeCaller\r\n                    (\r\n                        address caller\r\n                    )\r\n                        public\r\n    {\r\n        authorized[caller] = true;\r\n    }\r\n\r\n   /**\r\n    * @dev Add an airline to the registration queue\r\n    *      Can only be called from FlightSuretyApp contract\r\n    *\r\n    */   \r\n    function registerAirline\r\n                            ( \r\n                                address airline,\r\n                                address _sender\r\n                            )\r\n                            external\r\n                           // returns (bool)\r\n    {\r\n        require(!isAirline(airline), \"Airline already registered\");\r\n        bool _success;\r\n        uint256 _votes;\r\n        airlines[airline] =  Airline({\r\n                                        isRegistered: false, \r\n                                        isFunded: false\r\n                                    });\r\n        (_success, _votes) = consensusAirline(airline, _sender);\r\n        if (_success){\r\n            airlines[airline].isRegistered = true;     \r\n            authorized[airline] = true;\r\n        }\r\n\r\n        emit evntRegisterAirline(_success, _votes);\r\n    }\r\n\r\n\r\n    function registerFlight\r\n                            (\r\n                                address airline,\r\n                                string flightCode,\r\n                                uint256 timestamp\r\n                            )\r\n                            external\r\n    {\r\n        require(isAirlineFunded(airline), \"Only funded airlines can participate\");\r\n        bytes32 flightKey = getFlightKey(airline, flightCode, timestamp);\r\n        require(!flights[flightKey].isRegistered, \"Flight is already registered\");\r\n        flights[flightKey] = Flight({\r\n                                        isRegistered: true,\r\n                                        statusCode: STATUS_CODE_UNKNOWN,\r\n                                        flightCode: flightCode,\r\n                                        updatedTimestamp: timestamp,\r\n                                        airline: airline\r\n                                    });\r\n    }\r\n\r\n\r\n   /**\r\n    * @dev Buy insurance for a flight\r\n    * Insuree pays the insurance amount which is stored in insureeFlightAmount mapping\r\n    * Insurees address is added to a list that stores all the insurees for the specific flight\r\n    */\r\n    function buy\r\n                            (\r\n                                address passenger,\r\n                                address airline,\r\n                                string flight,\r\n                                uint256 timestamp\r\n                            )\r\n                            external\r\n                            payable\r\n    {\r\n        require(msg.value <= 1 ether, \"Amount exceed maximum value\");\r\n        bytes32 flightKey = getFlightKey(airline, flight, timestamp);\r\n        bytes32 passengerKey = keccak256(abi.encodePacked(passenger, flightKey));\r\n        uint256 currentAmount = passengerAmount[passengerKey];\r\n        require(currentAmount.add(msg.value) <= 1 ether);\r\n        passengerAmount[passengerKey] = currentAmount + msg.value;\r\n        flightPassengers[flightKey].push(passenger);\r\n    }\r\n\r\n    // helper function\r\n    function boughtPassenger\r\n                            ( \r\n                                address passenger,\r\n                                address airline,\r\n                                string flight,\r\n                                uint256 timestamp\r\n\r\n                            )\r\n                            external\r\n                            view\r\n                            returns(uint256)\r\n    {\r\n        bytes32 flightKey = getFlightKey(airline, flight, timestamp);\r\n        bytes32 passengerKey = keccak256(abi.encodePacked(passenger, flightKey));\r\n        return passengerAmount[passengerKey];\r\n    }\r\n\r\n    function payoutPassenger\r\n                            (\r\n                                address passenger\r\n                            )\r\n                            external\r\n                            view\r\n                            returns(uint256)\r\n    {\r\n        return passengerPayout[passenger];\r\n    }\r\n\r\n    function flightPassenger\r\n                            (\r\n                                address airline,\r\n                                string flight,\r\n                                uint256 timestamp\r\n                            )\r\n                            external\r\n                            view\r\n                            returns(address)\r\n    {\r\n        bytes32 flightKey = getFlightKey(airline, flight, timestamp);\r\n        return flightPassengers[flightKey][0];\r\n    }\r\n\r\n    /**\r\n    *  @dev Credits payouts to insurees\r\n    *  When a flight is delayed passenger is credited x1.5 the amount of insurance\r\n    */\r\n    function creditInsurees\r\n                                (\r\n                                    address airline, \r\n                                    string flight, \r\n                                    uint256 timestamp\r\n                                )\r\n                                external\r\n    {\r\n        bytes32 flightKey = getFlightKey(airline, flight, timestamp);\r\n        address[] storage passengers = flightPassengers[flightKey];\r\n        for (uint idx; idx < passengers.length; idx++) {\r\n            address passenger = passengers[idx];\r\n            bytes32 passengerKey = keccak256(abi.encodePacked(passenger, flightKey));\r\n            uint256 refund = passengerAmount[passengerKey].mul(3).div(2);\r\n            passengerPayout[passenger] = passengerPayout[passenger].add(refund);\r\n        }\r\n    }\r\n\r\n    \r\n\r\n    /**\r\n     *  @dev Transfers eligible payout funds to insuree\r\n     *\r\n    */\r\n    function pay\r\n                            (\r\n                                address passenger,                              \r\n                                address airline,\r\n                                string flightCode,\r\n                                uint256 timestamp\r\n                            )\r\n                            external\r\n                            payable\r\n    {\r\n        \r\n        require(passengerPayout[passenger] > 0, \"This address is not credited any amount!\");\r\n        bytes32 flightKey = getFlightKey(airline, flightCode, timestamp);\r\n        uint256 refund = passengerPayout[passenger];\r\n        passenger.transfer(refund);\r\n        passengerPayout[passenger] = passengerPayout[passenger].sub(refund);\r\n    }\r\n\r\n   /**\r\n    * @dev Initial funding for the insurance. Unless there are too many delayed flights\r\n    *      resulting in insurance payouts, the contract should be self-sustaining\r\n    *\r\n    */   \r\n    function fund\r\n                            (\r\n                                address airline\r\n                            )\r\n                            public\r\n                            payable\r\n    {\r\n        require(isAirline(airline), \"Not a registered airline\");\r\n        require(!isAirlineFunded(airline), \"Airline is already Funded\");\r\n        require(msg.value == AIRLINE_FUND_FEE, \"Please pay the exact amount\");\r\n\r\n        airlines[airline].isFunded = true;\r\n    }\r\n\r\n    function checkCredit\r\n                        (\r\n                            address passenger\r\n                        )\r\n                        view\r\n                        external\r\n                        returns(uint256)\r\n    {\r\n        return passengerPayout[passenger];\r\n    }\r\n\r\n\r\n    function getFlightKey\r\n                        (\r\n                            address airline,\r\n                            string memory flight,\r\n                            uint256 timestamp\r\n                        )\r\n                        pure\r\n                        internal\r\n                        returns(bytes32) \r\n    {\r\n        return keccak256(abi.encodePacked(airline, flight, timestamp));\r\n    }\r\n\r\n    /**\r\n    * @dev Fallback function for funding smart contract.\r\n    *\r\n    */\r\n    function() \r\n                            external \r\n                            payable \r\n    {\r\n    }\r\n\r\n\r\n}\r\n\r\n",
  "sourcePath": "C:/Users/mavridis/Documents/blk/FlightSurety/contracts/FlightSuretyData.sol",
  "compiler": {
    "name": "solc",
    "version": "0.4.25+commit.59dbf8f1.Emscripten.clang"
  },
  "schemaVersion": "3.0.6",
  "updatedAt": "2019-04-23T07:09:15.765Z",
  "devdoc": {
    "methods": {
      "authorizeCaller(address)": {
        "details": "Authorizes the contract creator to create the first airline entry\r     "
      },
      "buy(address,address,string,uint256)": {
        "details": "Buy insurance for a flight\r Insuree pays the insurance amount which is stored in insureeFlightAmount mapping\r Insurees address is added to a list that stores all the insurees for the specific flight\r"
      },
      "creditInsurees(address,string,uint256)": {
        "details": "Credits payouts to insurees\r When a flight is delayed passenger is credited x1.5 the amount of insurance\r"
      },
      "fund(address)": {
        "details": "Initial funding for the insurance. Unless there are too many delayed flights\r     resulting in insurance payouts, the contract should be self-sustaining\r     "
      },
      "isAirline(address)": {
        "details": "Checks if airline is registered\r ",
        "return": "A bool \r"
      },
      "isAirlineFunded(address)": {
        "details": "Checks if airline is funded\r ",
        "return": "A bool \r"
      },
      "isAuthorized(address)": {
        "details": "Get if address is authorized to perform certain operations\r     * \r"
      },
      "isOperational()": {
        "details": "Get operating status of contract\r ",
        "return": "A bool that is the current operating status\r"
      },
      "pay(address,address,string,uint256)": {
        "details": "Transfers eligible payout funds to insuree\r     "
      },
      "registerAirline(address,address)": {
        "details": "Add an airline to the registration queue\r     Can only be called from FlightSuretyApp contract\r     "
      },
      "setOperatingStatus(bool)": {
        "details": "Sets contract operations on/off\r     * When operational mode is disabled, all write transactions except for this one will fail\r"
      }
    }
  },
  "userdoc": {
    "methods": {}
  }
}