{
  "contractName": "FlightSuretyData",
  "abi": [
    {
      "constant": true,
      "inputs": [],
      "name": "AIRLINE_FUND_FEE",
      "outputs": [
        {
          "name": "",
          "type": "uint256"
        }
      ],
      "payable": false,
      "stateMutability": "view",
      "type": "function"
    },
    {
      "inputs": [],
      "payable": false,
      "stateMutability": "nonpayable",
      "type": "constructor"
    },
    {
      "payable": true,
      "stateMutability": "payable",
      "type": "fallback"
    },
    {
      "constant": true,
      "inputs": [],
      "name": "isOperational",
      "outputs": [
        {
          "name": "",
          "type": "bool"
        }
      ],
      "payable": false,
      "stateMutability": "view",
      "type": "function"
    },
    {
      "constant": true,
      "inputs": [
        {
          "name": "airline",
          "type": "address"
        }
      ],
      "name": "isAirline",
      "outputs": [
        {
          "name": "",
          "type": "bool"
        }
      ],
      "payable": false,
      "stateMutability": "view",
      "type": "function"
    },
    {
      "constant": true,
      "inputs": [
        {
          "name": "airline",
          "type": "address"
        }
      ],
      "name": "isAirlineFunded",
      "outputs": [
        {
          "name": "",
          "type": "bool"
        }
      ],
      "payable": false,
      "stateMutability": "view",
      "type": "function"
    },
    {
      "constant": false,
      "inputs": [
        {
          "name": "mode",
          "type": "bool"
        }
      ],
      "name": "setOperatingStatus",
      "outputs": [],
      "payable": false,
      "stateMutability": "nonpayable",
      "type": "function"
    },
    {
      "constant": false,
      "inputs": [
        {
          "name": "caller",
          "type": "address"
        }
      ],
      "name": "authorizeCaller",
      "outputs": [],
      "payable": false,
      "stateMutability": "nonpayable",
      "type": "function"
    },
    {
      "constant": false,
      "inputs": [
        {
          "name": "airline",
          "type": "address"
        }
      ],
      "name": "registerAirline",
      "outputs": [
        {
          "name": "",
          "type": "bool"
        }
      ],
      "payable": false,
      "stateMutability": "nonpayable",
      "type": "function"
    },
    {
      "constant": false,
      "inputs": [
        {
          "name": "flightCode",
          "type": "string"
        },
        {
          "name": "timestamp",
          "type": "uint256"
        },
        {
          "name": "airline",
          "type": "address"
        }
      ],
      "name": "registerFlight",
      "outputs": [
        {
          "name": "",
          "type": "bool"
        }
      ],
      "payable": false,
      "stateMutability": "nonpayable",
      "type": "function"
    },
    {
      "constant": false,
      "inputs": [
        {
          "name": "airline",
          "type": "address"
        },
        {
          "name": "flight",
          "type": "string"
        },
        {
          "name": "timestamp",
          "type": "uint256"
        },
        {
          "name": "statusCode",
          "type": "uint8"
        }
      ],
      "name": "processFlightStatus",
      "outputs": [
        {
          "name": "",
          "type": "bool"
        }
      ],
      "payable": false,
      "stateMutability": "nonpayable",
      "type": "function"
    },
    {
      "constant": false,
      "inputs": [],
      "name": "fund",
      "outputs": [],
      "payable": true,
      "stateMutability": "payable",
      "type": "function"
    }
  ],
  "bytecode": "0x60806040526001600060146101000a81548160ff02191690831515021790555060008060156101000a81548163ffffffff021916908363ffffffff16021790555034801561004c57600080fd5b50336000806101000a81548173ffffffffffffffffffffffffffffffffffffffff021916908373ffffffffffffffffffffffffffffffffffffffff1602179055506100c66000809054906101000a900473ffffffffffffffffffffffffffffffffffffffff166100cb640100000000026401000000009004565b610126565b6001600360008373ffffffffffffffffffffffffffffffffffffffff1673ffffffffffffffffffffffffffffffffffffffff16815260200190815260200160002060006101000a81548160ff02191690831515021790555050565b610da8806101356000396000f3006080604052600436106100a4576000357c0100000000000000000000000000000000000000000000000000000000900463ffffffff1680630e248a11146100ae578063110466ed146101095780632c388d5d1461013857806365c152f71461017b5780639f1afb9d146101f8578063b60d428814610223578063bdfd98771461022d578063cd905dff14610288578063e7bdde3b146102b7578063f53b6d6514610341575b6100ac61039c565b005b3480156100ba57600080fd5b506100ef600480360381019080803573ffffffffffffffffffffffffffffffffffffffff1690602001909291905050506105a6565b604051808215151515815260200191505060405180910390f35b34801561011557600080fd5b506101366004803603810190808035151590602001909291905050506105ff565b005b34801561014457600080fd5b50610179600480360381019080803573ffffffffffffffffffffffffffffffffffffffff1690602001909291905050506106e0565b005b34801561018757600080fd5b506101de60048036038101908080359060200190820180359060200191909192939192939080359060200190929190803573ffffffffffffffffffffffffffffffffffffffff16906020019092919050505061073b565b604051808215151515815260200191505060405180910390f35b34801561020457600080fd5b5061020d6108d4565b6040518082815260200191505060405180910390f35b61022b61039c565b005b34801561023957600080fd5b5061026e600480360381019080803573ffffffffffffffffffffffffffffffffffffffff1690602001909291905050506108e0565b604051808215151515815260200191505060405180910390f35b34801561029457600080fd5b5061029d610ab6565b604051808215151515815260200191505060405180910390f35b3480156102c357600080fd5b50610327600480360381019080803573ffffffffffffffffffffffffffffffffffffffff16906020019092919080359060200190820180359060200191909192939192939080359060200190929190803560ff169060200190929190505050610acc565b604051808215151515815260200191505060405180910390f35b34801561034d57600080fd5b50610382600480360381019080803573ffffffffffffffffffffffffffffffffffffffff169060200190929190505050610b59565b604051808215151515815260200191505060405180910390f35b6103a5336105a6565b1515610419576040517f08c379a00000000000000000000000000000000000000000000000000000000081526004018080602001828103825260188152602001807f4e6f7420612072656769737465726564206169726c696e65000000000000000081525060200191505060405180910390fd5b678ac7230489e800003410151515610499576040517f08c379a000000000000000000000000000000000000000000000000000000000815260040180806020018281038252601e8152602001807f506c65617365207061792074686520726571756972656420616d6f756e74000081525060200191505060405180910390fd5b3073ffffffffffffffffffffffffffffffffffffffff166108fc678ac7230489e800009081150290604051600060405180830381858888f193505050501580156104e7573d6000803e3d6000fd5b5060018060003373ffffffffffffffffffffffffffffffffffffffff1673ffffffffffffffffffffffffffffffffffffffff16815260200190815260200160002060000160016101000a81548160ff021916908315150217905550678ac7230489e800003411156105a4573373ffffffffffffffffffffffffffffffffffffffff166108fc678ac7230489e8000034039081150290604051600060405180830381858888f193505050501580156105a2573d6000803e3d6000fd5b505b565b6000600160008373ffffffffffffffffffffffffffffffffffffffff1673ffffffffffffffffffffffffffffffffffffffff16815260200190815260200160002060000160009054906101000a900460ff169050919050565b6000809054906101000a900473ffffffffffffffffffffffffffffffffffffffff1673ffffffffffffffffffffffffffffffffffffffff163373ffffffffffffffffffffffffffffffffffffffff161415156106c3576040517f08c379a000000000000000000000000000000000000000000000000000000000815260040180806020018281038252601c8152602001807f43616c6c6572206973206e6f7420636f6e7472616374206f776e65720000000081525060200191505060405180910390fd5b80600060146101000a81548160ff02191690831515021790555050565b6001600360008373ffffffffffffffffffffffffffffffffffffffff1673ffffffffffffffffffffffffffffffffffffffff16815260200190815260200160002060006101000a81548160ff02191690831515021790555050565b60008060006001915061078187878080601f0160208091040260200160405190810160405280939291908181526020018383808284378201915050505050508686610bb2565b905060a060405190810160405280600115158152602001600060ff16815260200188888080601f01602080910402602001604051908101604052809392919081815260200183838082843782019150505050505081526020018681526020018573ffffffffffffffffffffffffffffffffffffffff1681525060076000836000191660001916815260200190815260200160002060008201518160000160006101000a81548160ff02191690831515021790555060208201518160000160016101000a81548160ff021916908360ff1602179055506040820151816001019080519060200190610872929190610cd7565b506060820151816002015560808201518160030160006101000a81548173ffffffffffffffffffffffffffffffffffffffff021916908373ffffffffffffffffffffffffffffffffffffffff1602179055509050508192505050949350505050565b678ac7230489e8000081565b600080600060149054906101000a900460ff16151561098d576040517f08c379a00000000000000000000000000000000000000000000000000000000081526004018080602001828103825260258152602001807f436f6e74726163742069732063757272656e746c79206e6f74206f706572617481526020017f696f6e616c00000000000000000000000000000000000000000000000000000081525060400191505060405180910390fd5b600090506000600160008573ffffffffffffffffffffffffffffffffffffffff1673ffffffffffffffffffffffffffffffffffffffff16815260200190815260200160002060000160006101000a81548160ff0219169083151502179055506000600160008573ffffffffffffffffffffffffffffffffffffffff1673ffffffffffffffffffffffffffffffffffffffff16815260200190815260200160002060000160016101000a81548160ff02191690831515021790555060018060008573ffffffffffffffffffffffffffffffffffffffff1673ffffffffffffffffffffffffffffffffffffffff16815260200190815260200160002060000160006101000a81548160ff02191690831515021790555060019050610aae836105a6565b915050919050565b60008060149054906101000a900460ff16905090565b6000806000610b0e87878080601f016020809104026020016040519081016040528093929190818152602001838380828437820191505050505050868a610bb2565b91508360076000846000191660001916815260200190815260200160002060000160016101000a81548160ff021916908360ff16021790555060009050809250505095945050505050565b6000600160008373ffffffffffffffffffffffffffffffffffffffff1673ffffffffffffffffffffffffffffffffffffffff16815260200190815260200160002060000160019054906101000a900460ff169050919050565b6000818484604051602001808473ffffffffffffffffffffffffffffffffffffffff1673ffffffffffffffffffffffffffffffffffffffff166c0100000000000000000000000002815260140183805190602001908083835b602083101515610c305780518252602082019150602081019050602083039250610c0b565b6001836020036101000a03801982511681845116808217855250505050505090500182815260200193505050506040516020818303038152906040526040518082805190602001908083835b602083101515610ca15780518252602082019150602081019050602083039250610c7c565b6001836020036101000a038019825116818451168082178552505050505050905001915050604051809103902090509392505050565b828054600181600116156101000203166002900490600052602060002090601f016020900481019282601f10610d1857805160ff1916838001178555610d46565b82800160010185558215610d46579182015b82811115610d45578251825591602001919060010190610d2a565b5b509050610d539190610d57565b5090565b610d7991905b80821115610d75576000816000905550600101610d5d565b5090565b905600a165627a7a72305820c69354457eba842a9709216444f71a02e59fe395e223b8b52b31a41ef33733b40029",
  "source": "pragma solidity ^0.4.25;\n\nimport \"../node_modules/openzeppelin-solidity/contracts/math/SafeMath.sol\";\n\ncontract FlightSuretyData {\n    using SafeMath for uint256;\n\n    /********************************************************************************************/\n    /*                                       DATA VARIABLES                                     */\n    /********************************************************************************************/\n\n    address private contractOwner;                                      // Account used to deploy contract\n    bool private operational = true;                                    // Blocks all state changes throughout the contract if false\n    uint32 cntAirlines = 0;                                     // tracks the number of registered airlines\n    uint32 private constant AIRLINE_COUNT_THRESHOLD = 4;\n    uint32 private constant AIRLINE_REGISTER_PCT_THRESHOLD = 50;  // 50%\n    uint256 public constant AIRLINE_FUND_FEE = 10 ether;\n\n    // Flight status codees\n    uint8 private constant STATUS_CODE_UNKNOWN = 0;\n    uint8 private constant STATUS_CODE_ON_TIME = 10;\n    uint8 private constant STATUS_CODE_LATE_AIRLINE = 20;\n    uint8 private constant STATUS_CODE_LATE_WEATHER = 30;\n    uint8 private constant STATUS_CODE_LATE_TECHNICAL = 40;\n    uint8 private constant STATUS_CODE_LATE_OTHER = 50;\n\n\n    struct Airline {\n        bool isRegistered;\n        bool isFunded;\n    }\n\n    struct Flight {\n        bool isRegistered;\n        uint8 statusCode;\n        string flightCode;\n        uint256 updatedTimestamp;        \n        address airline;\n    }  \n\n    mapping(address => Airline) private airlines;\n    mapping(address => bool) private airlineExists;\n    mapping(address => bool) private authorized;\n    mapping(address => uint256) private registeredAirline;\n    mapping(bytes32 => bool) private addressVoted;\n    mapping(address => uint256) private votes;\n    mapping(bytes32 => Flight) private flights;  \n\n    /********************************************************************************************/\n    /*                                       EVENT DEFINITIONS                                  */\n    /********************************************************************************************/\n\n\n\n\n    /**\n    * @dev Constructor\n    *      The deploying account becomes contractOwner\n    */\n    constructor\n                                (\n                                ) \n                                public \n    {\n        contractOwner = msg.sender;\n        authorizeCaller(contractOwner);\n    }\n\n    /********************************************************************************************/\n    /*                                       FUNCTION MODIFIERS                                 */\n    /********************************************************************************************/\n\n    // Modifiers help avoid duplication of code. They are typically used to validate something\n    // before a function is allowed to be executed.\n\n    /**\n    * @dev Modifier that requires the \"operational\" boolean variable to be \"true\"\n    *      This is used on all state changing functions to pause the contract in \n    *      the event there is an issue that needs to be fixed\n    */\n    modifier requireIsOperational() \n    {\n        require(operational, \"Contract is currently not operational\");\n        _;  // All modifiers require an \"_\" which indicates where the function body will be added\n    }\n\n    /**\n    * @dev Modifier that requires the \"ContractOwner\" account to be the function caller\n    */\n    modifier requireContractOwner()\n    {\n        require(msg.sender == contractOwner, \"Caller is not contract owner\");\n        _;\n    }\n\n    /**\n    * @dev Modifier that requires the caller to be a registered airline\n    */\n    modifier requireIsCallerAuthorized()\n    {\n        require(authorized[msg.sender], \"Caller is not authorized\");\n        _;\n    }\n\n    /**\n    * @dev Modifier that requires the caller to be a funded airline\n    */\n    modifier requireIsCallerFunded()\n    {\n        require(isAirlineFunded(msg.sender), \"Caller is not funded\");\n        _;\n    }\n\n    /********************************************************************************************/\n    /*                                       UTILITY FUNCTIONS                                  */\n    /********************************************************************************************/\n\n    /**\n    * @dev Get operating status of contract\n    *\n    * @return A bool that is the current operating status\n    */      \n    function isOperational\n                    (\n\n                    ) \n                        public \n                        view \n                        returns(bool) \n    {\n        return operational;\n    }\n\n    /**\n    * @dev Checks if airline is register\n    *\n    * @return A bool that is the current operating status\n    */      \n    function isAirline\n                    (\n                        address airline\n                    ) \n                        public \n                        view \n                        returns(bool) \n    {\n        // if (airlineExists[airline] == false){\n        //     return false;\n        // } \n        // else{\n        return airlines[airline].isRegistered;\n\n        // }\n        \n    }\n\n    function isAirlineFunded\n                    (\n                        address airline\n                    ) \n                        public \n                        view \n                        returns(bool) \n    {\n        return airlines[airline].isFunded;\n    }\n    \n\n    /**\n    * @dev Sets contract operations on/off\n    *\n    * When operational mode is disabled, all write transactions except for this one will fail\n    */    \n    function setOperatingStatus\n                    (\n                        bool mode\n                    ) \n                        external\n                        requireContractOwner \n    {\n        operational = mode;\n    }\n\n    /**\n    * @dev Authorizes the contract creator to create the first airline entry\n    *\n    */    \n    function authorizeCaller\n                    (\n                        address caller\n                    )\n                        public\n    {\n        authorized[caller] = true;\n    }\n\n\n    function consensusAirline                      \n                    (\n                        address airline\n                    )\n                        internal\n                        returns(bool)\n    {\n        return true;\n        cntAirlines++;\n        if (cntAirlines <= AIRLINE_COUNT_THRESHOLD){\n            return true;\n        }\n        cntAirlines--;\n        bytes32 votedKey = keccak256(abi.encodePacked(msg.sender, airline));\n\n        // If a different airline is adding this one, increase the votes\n        if (!addressVoted[votedKey]){\n            addressVoted[votedKey] = true;\n            votes[airline]++;\n            if ((votes[airline].mul(100)).div(cntAirlines) >= AIRLINE_REGISTER_PCT_THRESHOLD){\n                cntAirlines++;\n                return true;\n            }\n        }\n        return false;\n    }\n\n    /********************************************************************************************/\n    /*                                     SMART CONTRACT FUNCTIONS                             */\n    /********************************************************************************************/\n\n   /**\n    * @dev Add an airline to the registration queue\n    *      Can only be called from FlightSuretyApp contract\n    *\n    */   \n    function registerAirline\n                    (\n                        address airline\n  //                      string name\n                    )\n                    external\n                    requireIsOperational\n//                    requireIsCallerAuthorized\n                    returns (bool)\n    {\n//            require(isAirline(airline) == false, \"Airline already registered\");\n\n            bool success = false;\n\n            airlines[airline].isRegistered = false; \n            airlines[airline].isFunded = false;\n\n            // airlines[airline] =  Airline({\n            //                                isRegistered: false, \n            //                                isFunded: false\n            //                            });\n\n//            if (consensusAirline(airline)){\n\n                airlines[airline].isRegistered = true;     \n //               authorized[airline] = true;\n //               airlineExists[airline] = true;\n                success = true;\n //           }\n\n            return isAirline(airline);\n//            return success;\n\n    }\n\n\n    function registerFlight\n                    (\n                        string flightCode,\n                        uint256 timestamp,    \n                        address airline\n                    )\n                    external\n                    returns (bool)\n    {\n            bool success = true;\n            // requires sender = airline\n            bytes32 flightKey = getFlightKey(flightCode, timestamp, airline);\n            flights[flightKey] = Flight({\n                                        isRegistered: true,\n                                        statusCode: STATUS_CODE_UNKNOWN,\n                                        flightCode: flightCode,\n                                        updatedTimestamp: timestamp,\n                                        airline: airline\n                                    });\n            return success;\n\n    }\n\n\n    function processFlightStatus\n                        (\n                        address airline,\n                        string  flight,\n                        uint256 timestamp,\n                        uint8 statusCode\n                        )\n                    external\n                    returns (bool)\n    {\n        bytes32 flightKey = getFlightKey(flight, timestamp, airline);\n        flights[flightKey].statusCode = statusCode;\n        bool success = false;\n        return success;\n\n    }\n\n\n   /**\n    * @dev Initial funding for the insurance. Unless there are too many delayed flights\n    *      resulting in insurance payouts, the contract should be self-sustaining\n    *\n    */   \n    function fund\n                            (   \n                            )\n                            public\n                            payable\n    {\n        require(isAirline(msg.sender), \"Not a registered airline\");\n        require(msg.value >= AIRLINE_FUND_FEE, \"Please pay the required amount\");\n        address(this).transfer(AIRLINE_FUND_FEE);\n        airlines[msg.sender].isFunded = true;\n        if (msg.value > AIRLINE_FUND_FEE){\n            msg.sender.transfer(msg.value - AIRLINE_FUND_FEE);\n        }\n    }\n\n    function getFlightKey\n                        (\n                            string memory flight,\n                            uint256 timestamp,\n                            address airline\n                        )\n                        pure\n                        internal\n                        returns(bytes32) \n    {\n        return keccak256(abi.encodePacked(airline, flight, timestamp));\n    }\n\n    /**\n    * @dev Fallback function for funding smart contract.\n    *\n    */\n    function() \n                            external \n                            payable \n    {\n        fund();\n    }\n\n}",
  "sourcePath": "/home/dimitrios/Documents/blockchain/FlightSurety/contracts/FlightSuretyData.sol",
  "compiler": {
    "name": "solc",
    "version": "0.4.25+commit.59dbf8f1.Emscripten.clang"
  },
  "schemaVersion": "2.0.2",
  "updatedAt": "2019-04-07T13:46:03.354Z"
}