{
  "contractName": "FlightSuretyApp",
  "abi": [
    {
      "constant": true,
      "inputs": [],
      "name": "REGISTRATION_FEE",
      "outputs": [
        {
          "name": "",
          "type": "uint256"
        }
      ],
      "payable": false,
      "stateMutability": "view",
      "type": "function",
      "signature": "0x64b4f751"
    },
    {
      "inputs": [
        {
          "name": "dataContract",
          "type": "address"
        },
        {
          "name": "firstAddress",
          "type": "address"
        }
      ],
      "payable": false,
      "stateMutability": "nonpayable",
      "type": "constructor",
      "signature": "constructor"
    },
    {
      "anonymous": false,
      "inputs": [
        {
          "indexed": false,
          "name": "airline",
          "type": "address"
        },
        {
          "indexed": false,
          "name": "flight",
          "type": "string"
        },
        {
          "indexed": false,
          "name": "timestamp",
          "type": "uint256"
        },
        {
          "indexed": false,
          "name": "status",
          "type": "uint8"
        }
      ],
      "name": "FlightStatusInfo",
      "type": "event",
      "signature": "0xe23f5229de535c091e3b7bec2665f5d698192d3b31393066e8987b7a05076b6c"
    },
    {
      "anonymous": false,
      "inputs": [
        {
          "indexed": false,
          "name": "airline",
          "type": "address"
        },
        {
          "indexed": false,
          "name": "flight",
          "type": "string"
        },
        {
          "indexed": false,
          "name": "timestamp",
          "type": "uint256"
        },
        {
          "indexed": false,
          "name": "status",
          "type": "uint8"
        }
      ],
      "name": "OracleReport",
      "type": "event",
      "signature": "0x43c853095c2752648493c88b4baac4d580d2594ffb00c6f1d4242d844514f783"
    },
    {
      "anonymous": false,
      "inputs": [
        {
          "indexed": false,
          "name": "index",
          "type": "uint8"
        },
        {
          "indexed": false,
          "name": "airline",
          "type": "address"
        },
        {
          "indexed": false,
          "name": "flight",
          "type": "string"
        },
        {
          "indexed": false,
          "name": "timestamp",
          "type": "uint256"
        }
      ],
      "name": "OracleRequest",
      "type": "event",
      "signature": "0x3ed01f2c3fc24c6b329d931e35b03e390d23497d22b3f90e15b600343e93df11"
    },
    {
      "constant": false,
      "inputs": [],
      "name": "isOperational",
      "outputs": [
        {
          "name": "",
          "type": "bool"
        }
      ],
      "payable": false,
      "stateMutability": "nonpayable",
      "type": "function",
      "signature": "0xcd905dff"
    },
    {
      "constant": false,
      "inputs": [
        {
          "name": "airline",
          "type": "address"
        }
      ],
      "name": "isAirline",
      "outputs": [
        {
          "name": "",
          "type": "bool"
        }
      ],
      "payable": false,
      "stateMutability": "nonpayable",
      "type": "function",
      "signature": "0x0e248a11"
    },
    {
      "constant": false,
      "inputs": [
        {
          "name": "airline",
          "type": "address"
        }
      ],
      "name": "isAirlineFunded",
      "outputs": [
        {
          "name": "",
          "type": "bool"
        }
      ],
      "payable": false,
      "stateMutability": "nonpayable",
      "type": "function",
      "signature": "0xf53b6d65"
    },
    {
      "constant": false,
      "inputs": [
        {
          "name": "airline",
          "type": "address"
        }
      ],
      "name": "registerAirline",
      "outputs": [],
      "payable": false,
      "stateMutability": "nonpayable",
      "type": "function",
      "signature": "0xbdfd9877"
    },
    {
      "constant": false,
      "inputs": [],
      "name": "fund",
      "outputs": [],
      "payable": true,
      "stateMutability": "payable",
      "type": "function",
      "signature": "0xb60d4288"
    },
    {
      "constant": false,
      "inputs": [
        {
          "name": "airline",
          "type": "address"
        },
        {
          "name": "flight",
          "type": "string"
        },
        {
          "name": "timestamp",
          "type": "uint256"
        }
      ],
      "name": "buy",
      "outputs": [],
      "payable": true,
      "stateMutability": "payable",
      "type": "function",
      "signature": "0xb1c46d22"
    },
    {
      "constant": false,
      "inputs": [
        {
          "name": "airline",
          "type": "address"
        },
        {
          "name": "flightCode",
          "type": "string"
        },
        {
          "name": "timestamp",
          "type": "uint256"
        }
      ],
      "name": "registerFlight",
      "outputs": [],
      "payable": false,
      "stateMutability": "nonpayable",
      "type": "function",
      "signature": "0x3cc0be9c"
    },
    {
      "constant": false,
      "inputs": [
        {
          "name": "airline",
          "type": "address"
        },
        {
          "name": "flight",
          "type": "string"
        },
        {
          "name": "timestamp",
          "type": "uint256"
        },
        {
          "name": "statusCode",
          "type": "uint8"
        }
      ],
      "name": "processFlightStatus",
      "outputs": [],
      "payable": false,
      "stateMutability": "nonpayable",
      "type": "function",
      "signature": "0xe7bdde3b"
    },
    {
      "constant": false,
      "inputs": [
        {
          "name": "passenger",
          "type": "address"
        },
        {
          "name": "airline",
          "type": "address"
        },
        {
          "name": "flight",
          "type": "string"
        },
        {
          "name": "timestamp",
          "type": "uint256"
        }
      ],
      "name": "pay",
      "outputs": [],
      "payable": true,
      "stateMutability": "payable",
      "type": "function",
      "signature": "0x27b69fec"
    },
    {
      "constant": true,
      "inputs": [],
      "name": "checkCredit",
      "outputs": [
        {
          "name": "",
          "type": "uint256"
        }
      ],
      "payable": false,
      "stateMutability": "view",
      "type": "function",
      "signature": "0x6cba6290"
    },
    {
      "constant": false,
      "inputs": [
        {
          "name": "airline",
          "type": "address"
        },
        {
          "name": "flight",
          "type": "string"
        },
        {
          "name": "timestamp",
          "type": "uint256"
        }
      ],
      "name": "fetchFlightStatus",
      "outputs": [],
      "payable": false,
      "stateMutability": "nonpayable",
      "type": "function",
      "signature": "0xf83f11c0"
    },
    {
      "constant": false,
      "inputs": [],
      "name": "registerOracle",
      "outputs": [],
      "payable": true,
      "stateMutability": "payable",
      "type": "function",
      "signature": "0x339d2590"
    },
    {
      "constant": true,
      "inputs": [],
      "name": "getMyIndexes",
      "outputs": [
        {
          "name": "",
          "type": "uint8[3]"
        }
      ],
      "payable": false,
      "stateMutability": "view",
      "type": "function",
      "signature": "0x5f1cc0e6"
    },
    {
      "constant": false,
      "inputs": [
        {
          "name": "index",
          "type": "uint8"
        },
        {
          "name": "airline",
          "type": "address"
        },
        {
          "name": "flight",
          "type": "string"
        },
        {
          "name": "timestamp",
          "type": "uint256"
        },
        {
          "name": "statusCode",
          "type": "uint8"
        }
      ],
      "name": "submitOracleResponse",
      "outputs": [],
      "payable": false,
      "stateMutability": "nonpayable",
      "type": "function",
      "signature": "0xc10f2700"
    }
  ],
  "bytecode": "0x60806040526000600360006101000a81548160ff021916908360ff16021790555034801561002c57600080fd5b50604051604080612314833981018060405281019080805190602001909291908051906020019092919050505033600160006101000a81548173ffffffffffffffffffffffffffffffffffffffff021916908373ffffffffffffffffffffffffffffffffffffffff160217905550816000806101000a81548173ffffffffffffffffffffffffffffffffffffffff021916908373ffffffffffffffffffffffffffffffffffffffff1602179055506000809054906101000a900473ffffffffffffffffffffffffffffffffffffffff1673ffffffffffffffffffffffffffffffffffffffff16632c388d5d826040518263ffffffff167c0100000000000000000000000000000000000000000000000000000000028152600401808273ffffffffffffffffffffffffffffffffffffffff1673ffffffffffffffffffffffffffffffffffffffff168152602001915050600060405180830381600087803b15801561019657600080fd5b505af11580156101aa573d6000803e3d6000fd5b505050505050612155806101bf6000396000f3006080604052600436106100db576000357c0100000000000000000000000000000000000000000000000000000000900463ffffffff1680630e248a11146100e057806327b69fec1461013b578063339d2590146101b35780633cc0be9c146101bd5780635f1cc0e61461022257806364b4f751146102755780636cba6290146102a0578063b1c46d22146102cb578063b60d428814610323578063bdfd98771461032d578063c10f270014610370578063cd905dff146103ef578063e7bdde3b1461041e578063f53b6d65146104be578063f83f11c014610519575b600080fd5b3480156100ec57600080fd5b50610121600480360381019080803573ffffffffffffffffffffffffffffffffffffffff16906020019092919050505061057e565b604051808215151515815260200191505060405180910390f35b6101b1600480360381019080803573ffffffffffffffffffffffffffffffffffffffff169060200190929190803573ffffffffffffffffffffffffffffffffffffffff1690602001909291908035906020019082018035906020019190919293919293908035906020019092919050505061067e565b005b6101bb6107b7565b005b3480156101c957600080fd5b50610220600480360381019080803573ffffffffffffffffffffffffffffffffffffffff169060200190929190803590602001908201803590602001919091929391929390803590602001909291905050506108df565b005b34801561022e57600080fd5b50610237610a86565b6040518082600360200280838360005b83811015610262578082015181840152602081019050610247565b5050505090500191505060405180910390f35b34801561028157600080fd5b5061028a610bfb565b6040518082815260200191505060405180910390f35b3480156102ac57600080fd5b506102b5610c07565b6040518082815260200191505060405180910390f35b610321600480360381019080803573ffffffffffffffffffffffffffffffffffffffff16906020019092919080359060200190820180359060200191909192939192939080359060200190929190505050610d05565b005b61032b610e3e565b005b34801561033957600080fd5b5061036e600480360381019080803573ffffffffffffffffffffffffffffffffffffffff169060200190929190505050610f15565b005b34801561037c57600080fd5b506103ed600480360381019080803560ff169060200190929190803573ffffffffffffffffffffffffffffffffffffffff16906020019092919080359060200190820180359060200191909192939192939080359060200190929190803560ff16906020019092919050505061118b565b005b3480156103fb57600080fd5b506104046117a4565b604051808215151515815260200191505060405180910390f35b34801561042a57600080fd5b506104bc600480360381019080803573ffffffffffffffffffffffffffffffffffffffff169060200190929190803590602001908201803590602001908080601f016020809104026020016040519081016040528093929190818152602001838380828437820191505050505050919291929080359060200190929190803560ff16906020019092919050505061186b565b005b3480156104ca57600080fd5b506104ff600480360381019080803573ffffffffffffffffffffffffffffffffffffffff1690602001909291905050506119ca565b604051808215151515815260200191505060405180910390f35b34801561052557600080fd5b5061057c600480360381019080803573ffffffffffffffffffffffffffffffffffffffff16906020019092919080359060200190820180359060200191909192939192939080359060200190929190505050611aca565b005b60008060009054906101000a900473ffffffffffffffffffffffffffffffffffffffff1673ffffffffffffffffffffffffffffffffffffffff16630e248a11836040518263ffffffff167c0100000000000000000000000000000000000000000000000000000000028152600401808273ffffffffffffffffffffffffffffffffffffffff1673ffffffffffffffffffffffffffffffffffffffff168152602001915050602060405180830381600087803b15801561063c57600080fd5b505af1158015610650573d6000803e3d6000fd5b505050506040513d602081101561066657600080fd5b81019080805190602001909291905050509050919050565b6000809054906101000a900473ffffffffffffffffffffffffffffffffffffffff1673ffffffffffffffffffffffffffffffffffffffff166327b69fec86868686866040518663ffffffff167c0100000000000000000000000000000000000000000000000000000000028152600401808673ffffffffffffffffffffffffffffffffffffffff1673ffffffffffffffffffffffffffffffffffffffff1681526020018573ffffffffffffffffffffffffffffffffffffffff1673ffffffffffffffffffffffffffffffffffffffff16815260200180602001838152602001828103825285858281815260200192508082843782019150509650505050505050600060405180830381600087803b15801561079857600080fd5b505af11580156107ac573d6000803e3d6000fd5b505050505050505050565b6107bf61203c565b670de0b6b3a7640000341015151561083f576040517f08c379a000000000000000000000000000000000000000000000000000000000815260040180806020018281038252601c8152602001807f526567697374726174696f6e206665652069732072657175697265640000000081525060200191505060405180910390fd5b61084833611d34565b9050604080519081016040528060011515815260200182815250600460003373ffffffffffffffffffffffffffffffffffffffff1673ffffffffffffffffffffffffffffffffffffffff16815260200190815260200160002060008201518160000160006101000a81548160ff0219169083151502179055506020820151816001019060036108d892919061205f565b5090505050565b6108e8336119ca565b1515610982576040517f08c379a000000000000000000000000000000000000000000000000000000000815260040180806020018281038252602a8152602001807f4f6e6c792066756e646564206169726c696e65732063616e207265676973746581526020017f72206120666c696768740000000000000000000000000000000000000000000081525060400191505060405180910390fd5b6000809054906101000a900473ffffffffffffffffffffffffffffffffffffffff1673ffffffffffffffffffffffffffffffffffffffff16633cc0be9c858585856040518563ffffffff167c0100000000000000000000000000000000000000000000000000000000028152600401808573ffffffffffffffffffffffffffffffffffffffff1673ffffffffffffffffffffffffffffffffffffffff168152602001806020018381526020018281038252858582818152602001925080828437820191505095505050505050600060405180830381600087803b158015610a6857600080fd5b505af1158015610a7c573d6000803e3d6000fd5b5050505050505050565b610a8e61203c565b600460003373ffffffffffffffffffffffffffffffffffffffff1673ffffffffffffffffffffffffffffffffffffffff16815260200190815260200160002060000160009054906101000a900460ff161515610b52576040517f08c379a000000000000000000000000000000000000000000000000000000000815260040180806020018281038252601b8152602001807f4e6f74207265676973746572656420617320616e206f7261636c65000000000081525060200191505060405180910390fd5b600460003373ffffffffffffffffffffffffffffffffffffffff1673ffffffffffffffffffffffffffffffffffffffff168152602001908152602001600020600101600380602002604051908101604052809291908260038015610bf1576020028201916000905b82829054906101000a900460ff1660ff1681526020019060010190602082600001049283019260010382029150808411610bba5790505b5050505050905090565b670de0b6b3a764000081565b60008060009054906101000a900473ffffffffffffffffffffffffffffffffffffffff1673ffffffffffffffffffffffffffffffffffffffff166329851d6b336040518263ffffffff167c0100000000000000000000000000000000000000000000000000000000028152600401808273ffffffffffffffffffffffffffffffffffffffff1673ffffffffffffffffffffffffffffffffffffffff168152602001915050602060405180830381600087803b158015610cc557600080fd5b505af1158015610cd9573d6000803e3d6000fd5b505050506040513d6020811015610cef57600080fd5b8101908080519060200190929190505050905090565b6000809054906101000a900473ffffffffffffffffffffffffffffffffffffffff1673ffffffffffffffffffffffffffffffffffffffff1663351831703433878787876040518763ffffffff167c0100000000000000000000000000000000000000000000000000000000028152600401808673ffffffffffffffffffffffffffffffffffffffff1673ffffffffffffffffffffffffffffffffffffffff1681526020018573ffffffffffffffffffffffffffffffffffffffff1673ffffffffffffffffffffffffffffffffffffffff168152602001806020018381526020018281038252858582818152602001925080828437820191505096505050505050506000604051808303818588803b158015610e1f57600080fd5b505af1158015610e33573d6000803e3d6000fd5b505050505050505050565b6000809054906101000a900473ffffffffffffffffffffffffffffffffffffffff1673ffffffffffffffffffffffffffffffffffffffff16632302440834336040518363ffffffff167c0100000000000000000000000000000000000000000000000000000000028152600401808273ffffffffffffffffffffffffffffffffffffffff1673ffffffffffffffffffffffffffffffffffffffff1681526020019150506000604051808303818588803b158015610efa57600080fd5b505af1158015610f0e573d6000803e3d6000fd5b5050505050565b6000809054906101000a900473ffffffffffffffffffffffffffffffffffffffff1673ffffffffffffffffffffffffffffffffffffffff1663fe9fbb80336040518263ffffffff167c0100000000000000000000000000000000000000000000000000000000028152600401808273ffffffffffffffffffffffffffffffffffffffff1673ffffffffffffffffffffffffffffffffffffffff168152602001915050602060405180830381600087803b158015610fd157600080fd5b505af1158015610fe5573d6000803e3d6000fd5b505050506040513d6020811015610ffb57600080fd5b81019080805190602001909291905050501515611080576040517f08c379a00000000000000000000000000000000000000000000000000000000081526004018080602001828103825260158152602001807f43616c6c6572206e6f7420617574686f72697a6564000000000000000000000081525060200191505060405180910390fd5b6000809054906101000a900473ffffffffffffffffffffffffffffffffffffffff1673ffffffffffffffffffffffffffffffffffffffff1663c7ba501882336040518363ffffffff167c0100000000000000000000000000000000000000000000000000000000028152600401808373ffffffffffffffffffffffffffffffffffffffff1673ffffffffffffffffffffffffffffffffffffffff1681526020018273ffffffffffffffffffffffffffffffffffffffff1673ffffffffffffffffffffffffffffffffffffffff16815260200192505050600060405180830381600087803b15801561117057600080fd5b505af1158015611184573d6000803e3d6000fd5b5050505050565b60008660ff16600460003373ffffffffffffffffffffffffffffffffffffffff1673ffffffffffffffffffffffffffffffffffffffff16815260200190815260200160002060010160006003811015156111e157fe5b602091828204019190069054906101000a900460ff1660ff16148061127057508660ff16600460003373ffffffffffffffffffffffffffffffffffffffff1673ffffffffffffffffffffffffffffffffffffffff168152602001908152602001600020600101600160038110151561125557fe5b602091828204019190069054906101000a900460ff1660ff16145b806112e557508660ff16600460003373ffffffffffffffffffffffffffffffffffffffff1673ffffffffffffffffffffffffffffffffffffffff16815260200190815260200160002060010160026003811015156112ca57fe5b602091828204019190069054906101000a900460ff1660ff16145b151561137f576040517f08c379a00000000000000000000000000000000000000000000000000000000081526004018080602001828103825260238152602001807f496e64657820646f6573206e6f74206d61746368206f7261636c65207265717581526020017f657374000000000000000000000000000000000000000000000000000000000081525060400191505060405180910390fd5b8686868686604051602001808660ff1660ff167f01000000000000000000000000000000000000000000000000000000000000000281526001018573ffffffffffffffffffffffffffffffffffffffff1673ffffffffffffffffffffffffffffffffffffffff166c010000000000000000000000000281526014018484808284378201915050828152602001955050505050506040516020818303038152906040526040518082805190602001908083835b6020831015156114565780518252602082019150602081019050602083039250611431565b6001836020036101000a0380198251168184511680821785525050505050509050019150506040518091039020905060056000826000191660001916815260200190815260200160002060000160149054906101000a900460ff16151561154b576040517f08c379a000000000000000000000000000000000000000000000000000000000815260040180806020018281038252602f8152602001807f466c69676874206f722074696d657374616d7020646f206e6f74206d6174636881526020017f206f7261636c652072657175657374000000000000000000000000000000000081525060400191505060405180910390fd5b60056000826000191660001916815260200190815260200160002060010160008360ff1660ff1681526020019081526020016000203390806001815401808255809150509060018203906000526020600020016000909192909190916101000a81548173ffffffffffffffffffffffffffffffffffffffff021916908373ffffffffffffffffffffffffffffffffffffffff160217905550507f43c853095c2752648493c88b4baac4d580d2594ffb00c6f1d4242d844514f7838686868686604051808673ffffffffffffffffffffffffffffffffffffffff1673ffffffffffffffffffffffffffffffffffffffff168152602001806020018481526020018360ff1660ff16815260200182810382528686828181526020019250808284378201915050965050505050505060405180910390a1600360056000836000191660001916815260200190815260200160002060010160008460ff1660ff1681526020019081526020016000208054905010151561179b577fe23f5229de535c091e3b7bec2665f5d698192d3b31393066e8987b7a05076b6c8686868686604051808673ffffffffffffffffffffffffffffffffffffffff1673ffffffffffffffffffffffffffffffffffffffff168152602001806020018481526020018360ff1660ff16815260200182810382528686828181526020019250808284378201915050965050505050505060405180910390a161179a8686868080601f016020809104026020016040519081016040528093929190818152602001838380828437820191505050505050858561186b565b5b50505050505050565b60008060009054906101000a900473ffffffffffffffffffffffffffffffffffffffff1673ffffffffffffffffffffffffffffffffffffffff1663cd905dff6040518163ffffffff167c0100000000000000000000000000000000000000000000000000000000028152600401602060405180830381600087803b15801561182b57600080fd5b505af115801561183f573d6000803e3d6000fd5b505050506040513d602081101561185557600080fd5b8101908080519060200190929190505050905090565b601460ff168160ff1614156119c4576000809054906101000a900473ffffffffffffffffffffffffffffffffffffffff1673ffffffffffffffffffffffffffffffffffffffff1663c8820a708585856040518463ffffffff167c0100000000000000000000000000000000000000000000000000000000028152600401808473ffffffffffffffffffffffffffffffffffffffff1673ffffffffffffffffffffffffffffffffffffffff16815260200180602001838152602001828103825284818151815260200191508051906020019080838360005b8381101561195d578082015181840152602081019050611942565b50505050905090810190601f16801561198a5780820380516001836020036101000a031916815260200191505b50945050505050600060405180830381600087803b1580156119ab57600080fd5b505af11580156119bf573d6000803e3d6000fd5b505050505b50505050565b60008060009054906101000a900473ffffffffffffffffffffffffffffffffffffffff1673ffffffffffffffffffffffffffffffffffffffff1663f53b6d65836040518263ffffffff167c0100000000000000000000000000000000000000000000000000000000028152600401808273ffffffffffffffffffffffffffffffffffffffff1673ffffffffffffffffffffffffffffffffffffffff168152602001915050602060405180830381600087803b158015611a8857600080fd5b505af1158015611a9c573d6000803e3d6000fd5b505050506040513d6020811015611ab257600080fd5b81019080805190602001909291905050509050919050565b600080611ad633611eda565b91508186868686604051602001808660ff1660ff167f01000000000000000000000000000000000000000000000000000000000000000281526001018573ffffffffffffffffffffffffffffffffffffffff1673ffffffffffffffffffffffffffffffffffffffff166c010000000000000000000000000281526014018484808284378201915050828152602001955050505050506040516020818303038152906040526040518082805190602001908083835b602083101515611baf5780518252602082019150602081019050602083039250611b8a565b6001836020036101000a0380198251168184511680821785525050505050509050019150506040518091039020905060408051908101604052803373ffffffffffffffffffffffffffffffffffffffff1681526020016001151581525060056000836000191660001916815260200190815260200160002060008201518160000160006101000a81548173ffffffffffffffffffffffffffffffffffffffff021916908373ffffffffffffffffffffffffffffffffffffffff16021790555060208201518160000160146101000a81548160ff0219169083151502179055509050507f3ed01f2c3fc24c6b329d931e35b03e390d23497d22b3f90e15b600343e93df118287878787604051808660ff1660ff1681526020018573ffffffffffffffffffffffffffffffffffffffff1673ffffffffffffffffffffffffffffffffffffffff1681526020018060200183815260200182810382528585828181526020019250808284378201915050965050505050505060405180910390a1505050505050565b611d3c61203c565b611d4461203c565b611d4d83611eda565b816000600381101515611d5c57fe5b602002019060ff16908160ff1681525050806000600381101515611d7c57fe5b6020020151816001600381101515611d9057fe5b602002019060ff16908160ff16815250505b806000600381101515611db157fe5b602002015160ff16816001600381101515611dc857fe5b602002015160ff161415611e0457611ddf83611eda565b816001600381101515611dee57fe5b602002019060ff16908160ff1681525050611da2565b806001600381101515611e1357fe5b6020020151816002600381101515611e2757fe5b602002019060ff16908160ff16815250505b806000600381101515611e4857fe5b602002015160ff16816002600381101515611e5f57fe5b602002015160ff161480611e9e5750806001600381101515611e7d57fe5b602002015160ff16816002600381101515611e9457fe5b602002015160ff16145b15611ed157611eac83611eda565b816002600381101515611ebb57fe5b602002019060ff16908160ff1681525050611e39565b80915050919050565b6000806000600a91508160ff166003600081819054906101000a900460ff168092919060010191906101000a81548160ff021916908360ff16021790555060ff16430340856040516020018083600019166000191681526020018273ffffffffffffffffffffffffffffffffffffffff1673ffffffffffffffffffffffffffffffffffffffff166c01000000000000000000000000028152601401925050506040516020818303038152906040526040518082805190602001908083835b602083101515611fbd5780518252602082019150602081019050602083039250611f98565b6001836020036101000a038019825116818451168082178552505050505050905001915050604051809103902060019004811515611ff757fe5b06905060fa600360009054906101000a900460ff1660ff161115612032576000600360006101000a81548160ff021916908360ff1602179055505b8092505050919050565b606060405190810160405280600390602082028038833980820191505090505090565b826003601f016020900481019282156120e85791602002820160005b838211156120b957835183826101000a81548160ff021916908360ff160217905550926020019260010160208160000104928301926001030261207b565b80156120e65782816101000a81549060ff02191690556001016020816000010492830192600103026120b9565b505b5090506120f591906120f9565b5090565b61212691905b8082111561212257600081816101000a81549060ff0219169055506001016120ff565b5090565b905600a165627a7a723058206c4d959812903d5eed3b8b5072438ae1607e03c0f652f75b27ded6122d50c3df0029",
  "source": "pragma solidity ^0.4.25;\r\n\r\n// It's important to avoid vulnerabilities due to numeric overflow bugs\r\n// OpenZeppelin's SafeMath library, when used correctly, protects agains such bugs\r\n// More info: https://www.nccgroup.trust/us/about-us/newsroom-and-events/blog/2018/november/smart-contract-insecurity-bad-arithmetic/\r\n\r\nimport \"../node_modules/openzeppelin-solidity/contracts/math/SafeMath.sol\";\r\n\r\n/************************************************** */\r\n/* FlightSurety Smart Contract                      */\r\n/************************************************** */\r\ncontract FlightSuretyApp {\r\n    using SafeMath for uint256; // Allow SafeMath functions to be called for all uint256 types (similar to \"prototype\" in Javascript)\r\n\r\n    /********************************************************************************************/\r\n    /*                                       DATA VARIABLES                                     */\r\n    /********************************************************************************************/\r\n\r\n    // Data contract definition\r\n    FlightSuretyData flightSuretyData;\r\n\r\n    // Flight status codees\r\n    uint8 private constant STATUS_CODE_UNKNOWN = 0;\r\n    uint8 private constant STATUS_CODE_ON_TIME = 10;\r\n    uint8 private constant STATUS_CODE_LATE_AIRLINE = 20;\r\n    uint8 private constant STATUS_CODE_LATE_WEATHER = 30;\r\n    uint8 private constant STATUS_CODE_LATE_TECHNICAL = 40;\r\n    uint8 private constant STATUS_CODE_LATE_OTHER = 50;\r\n\r\n    address private contractOwner;          // Account used to deploy contract\r\n\r\n    struct Flight {\r\n        bool isRegistered;\r\n        uint8 statusCode;\r\n        uint256 updatedTimestamp;        \r\n        address airline;\r\n    }\r\n    mapping(bytes32 => Flight) private flights;\r\n\r\n\r\n\r\n\r\n    /********************************************************************************************/\r\n    /*                                       FUNCTION MODIFIERS                                 */\r\n    /********************************************************************************************/\r\n\r\n    // Modifiers help avoid duplication of code. They are typically used to validate something\r\n    // before a function is allowed to be executed.\r\n\r\n    /**\r\n    * @dev Modifier that requires the \"operational\" boolean variable to be \"true\"\r\n    *      This is used on all state changing functions to pause the contract in \r\n    *      the event there is an issue that needs to be fixed\r\n    */\r\n    modifier requireIsOperational() \r\n    {\r\n         // Modify to call data contract's status\r\n        require(flightSuretyData.isOperational(), \"Contract is currently not operational\");  \r\n        _;  // All modifiers require an \"_\" which indicates where the function body will be added\r\n    }\r\n\r\n    /**\r\n    * @dev Modifier that requires the \"ContractOwner\" account to be the function caller\r\n    */\r\n    modifier requireContractOwner()\r\n    {\r\n        require(msg.sender == contractOwner, \"Caller is not contract owner\");\r\n        _;\r\n    }\r\n\r\n\r\n    /********************************************************************************************/\r\n    /*                                       CONSTRUCTOR                                        */\r\n    /********************************************************************************************/\r\n\r\n    /**\r\n    * @dev Contract constructor\r\n    *\r\n    */\r\n    constructor\r\n                                (\r\n                                address dataContract,\r\n                                address firstAddress\r\n                                ) \r\n                                public \r\n    {\r\n        contractOwner = msg.sender;\r\n        flightSuretyData = FlightSuretyData(dataContract);\r\n        flightSuretyData.authorizeCaller(firstAddress);\r\n    }\r\n\r\n    /********************************************************************************************/\r\n    /*                                       UTILITY FUNCTIONS                                  */\r\n    /********************************************************************************************/\r\n\r\n    function isOperational() \r\n                            public  \r\n                            returns(bool) \r\n    {\r\n        return flightSuretyData.isOperational();  // Modify to call data contract's status\r\n    }\r\n\r\n    function isAirline\r\n                            (\r\n                                address airline\r\n                            ) \r\n                            public  \r\n                            returns(bool) \r\n    {     \r\n        return flightSuretyData.isAirline(airline);\r\n    }\r\n\r\n    function isAirlineFunded\r\n                            (\r\n                                address airline\r\n                            ) \r\n                            public  \r\n                            returns(bool) \r\n    {     \r\n        return flightSuretyData.isAirlineFunded(airline);\r\n    }\r\n\r\n\r\n\r\n    /********************************************************************************************/\r\n    /*                                     SMART CONTRACT FUNCTIONS                             */\r\n    /********************************************************************************************/\r\n\r\n  \r\n   /**\r\n    * @dev Add an airline to the registration queue\r\n    *\r\n    */   \r\n    function registerAirline\r\n                            (   \r\n                                address airline\r\n                            )\r\n                            external \r\n    {\r\n        require(flightSuretyData.isAuthorized(msg.sender), \"Caller not authorized\");\r\n        flightSuretyData.registerAirline(airline, msg.sender);\r\n    }\r\n\r\n\r\n\r\n   /**\r\n    * @dev Fund the airline\r\n    *\r\n    */   \r\n    function fund\r\n                            (   \r\n                            )\r\n                            external\r\n                            payable\r\n    {\r\n        flightSuretyData.fund.value(msg.value)(msg.sender);\r\n    }\r\n\r\n    /**\r\n    * @dev Buy insurance for flight\r\n    *\r\n    */   \r\n    function buy\r\n                            (\r\n                                address airline,\r\n                                string flight,\r\n                                uint256 timestamp\r\n                            )\r\n                            external\r\n                            payable\r\n    {\r\n        flightSuretyData.buy.value(msg.value)(msg.sender, airline, flight, timestamp);\r\n    }\r\n\r\n\r\n\r\n   /**\r\n    * @dev Register a future flight for insuring.\r\n    *\r\n    */  \r\n    function registerFlight\r\n                                (\r\n                                    address airline,\r\n                                    string flightCode,\r\n                                    uint256 timestamp\r\n                                )\r\n                                external\r\n    {\r\n        require(isAirlineFunded(msg.sender), \"Only funded airlines can register a flight\");\r\n        flightSuretyData.registerFlight(airline, flightCode, timestamp);\r\n    }\r\n    \r\n   /**\r\n    * @dev Called after oracle has updated flight status\r\n    *\r\n    */  \r\n    function processFlightStatus\r\n                                (\r\n                                    address airline,\r\n                                    string flight,\r\n                                    uint256 timestamp,\r\n                                    uint8 statusCode\r\n                                )\r\n                                public\r\n    {\r\n\r\n        if (statusCode == STATUS_CODE_LATE_AIRLINE) {\r\n            flightSuretyData.creditInsurees(airline, flight, timestamp);\r\n        }\r\n\r\n    }\r\n\r\n\r\n    function pay\r\n                                (\r\n                                    address passenger,\r\n                                    address airline,\r\n                                    string flight,\r\n                                    uint256 timestamp                            \r\n                                )\r\n                                external\r\n                                payable\r\n    {\r\n        flightSuretyData.pay(passenger,airline, flight, timestamp);\r\n    }\r\n\r\n    function checkCredit\r\n                            (\r\n                            )\r\n                            view\r\n                            external\r\n                            returns(uint256)\r\n    {\r\n        return flightSuretyData.checkCredit(msg.sender);\r\n    }\r\n\r\n\r\n    // Generate a request for oracles to fetch flight information\r\n    function fetchFlightStatus\r\n                                (\r\n                                    address airline,\r\n                                    string flight,\r\n                                    uint256 timestamp                            \r\n                                )\r\n                                external\r\n    {\r\n        uint8 index = getRandomIndex(msg.sender);\r\n\r\n        // Generate a unique key for storing the request\r\n        bytes32 key = keccak256(abi.encodePacked(index, airline, flight, timestamp));\r\n        oracleResponses[key] = ResponseInfo({\r\n                                                requester: msg.sender,\r\n                                                isOpen: true\r\n                                            });\r\n\r\n        emit OracleRequest(index, airline, flight, timestamp);\r\n    } \r\n\r\n\r\n// region ORACLE MANAGEMENT\r\n\r\n    // Incremented to add pseudo-randomness at various points\r\n    uint8 private nonce = 0;    \r\n\r\n    // Fee to be paid when registering oracle\r\n    uint256 public constant REGISTRATION_FEE = 1 ether;\r\n\r\n    // Number of oracles that must respond for valid status\r\n    uint256 private constant MIN_RESPONSES = 3;\r\n\r\n\r\n    struct Oracle {\r\n        bool isRegistered;\r\n        uint8[3] indexes;        \r\n    }\r\n\r\n    // Track all registered oracles\r\n    mapping(address => Oracle) private oracles;\r\n\r\n    // Model for responses from oracles\r\n    struct ResponseInfo {\r\n        address requester;                              // Account that requested status\r\n        bool isOpen;                                    // If open, oracle responses are accepted\r\n        mapping(uint8 => address[]) responses;          // Mapping key is the status code reported\r\n                                                        // This lets us group responses and identify\r\n                                                        // the response that majority of the oracles\r\n    }\r\n\r\n    // Track all oracle responses\r\n    // Key = hash(index, flight, timestamp)\r\n    mapping(bytes32 => ResponseInfo) private oracleResponses;\r\n\r\n    // Event fired each time an oracle submits a response\r\n    event FlightStatusInfo(address airline, string flight, uint256 timestamp, uint8 status);\r\n\r\n    event OracleReport(address airline, string flight, uint256 timestamp, uint8 status);\r\n\r\n    // Event fired when flight status request is submitted\r\n    // Oracles track this and if they have a matching index\r\n    // they fetch data and submit a response\r\n    event OracleRequest(uint8 index, address airline, string flight, uint256 timestamp);\r\n\r\n\r\n    // Register an oracle with the contract\r\n    function registerOracle\r\n                            (\r\n                            )\r\n                            external\r\n                            payable\r\n    {\r\n        // Require registration fee\r\n        require(msg.value >= REGISTRATION_FEE, \"Registration fee is required\");\r\n\r\n        uint8[3] memory indexes = generateIndexes(msg.sender);\r\n\r\n        oracles[msg.sender] = Oracle({\r\n                                        isRegistered: true,\r\n                                        indexes: indexes\r\n                                    });\r\n    }\r\n\r\n    function getMyIndexes\r\n                            (\r\n                            )\r\n                            view\r\n                            external\r\n                            returns(uint8[3])\r\n    {\r\n        require(oracles[msg.sender].isRegistered, \"Not registered as an oracle\");\r\n\r\n        return oracles[msg.sender].indexes;\r\n    }\r\n\r\n    // Called by oracle when a response is available to an outstanding request\r\n    // For the response to be accepted, there must be a pending request that is open\r\n    // and matches one of the three Indexes randomly assigned to the oracle at the\r\n    // time of registration (i.e. uninvited oracles are not welcome)\r\n    function submitOracleResponse\r\n                        (\r\n                            uint8 index,\r\n                            address airline,\r\n                            string flight,\r\n                            uint256 timestamp,\r\n                            uint8 statusCode\r\n                        )\r\n                        external\r\n    {\r\n        require((oracles[msg.sender].indexes[0] == index) || (oracles[msg.sender].indexes[1] == index) || (oracles[msg.sender].indexes[2] == index), \"Index does not match oracle request\");\r\n        bytes32 key = keccak256(abi.encodePacked(index, airline, flight, timestamp)); \r\n        require(oracleResponses[key].isOpen, \"Flight or timestamp do not match oracle request\");\r\n\r\n        oracleResponses[key].responses[statusCode].push(msg.sender);\r\n\r\n        // Information isn't considered verified until at least MIN_RESPONSES\r\n        // oracles respond with the *** same *** information\r\n        emit OracleReport(airline, flight, timestamp, statusCode);\r\n        if (oracleResponses[key].responses[statusCode].length >= MIN_RESPONSES) {\r\n\r\n            emit FlightStatusInfo(airline, flight, timestamp, statusCode);\r\n\r\n            // Handle flight status as appropriate\r\n            processFlightStatus(airline, flight, timestamp, statusCode);\r\n        }\r\n    }\r\n\r\n\r\n    function getFlightKey\r\n                        (\r\n                            address airline,\r\n                            string flight,\r\n                            uint256 timestamp\r\n                        )\r\n                        pure\r\n                        internal\r\n                        returns(bytes32) \r\n    {\r\n        return keccak256(abi.encodePacked(airline, flight, timestamp));\r\n    }\r\n\r\n    // Returns array of three non-duplicating integers from 0-9\r\n    function generateIndexes\r\n                            (                       \r\n                                address account         \r\n                            )\r\n                            internal\r\n                            returns(uint8[3])\r\n    {\r\n        uint8[3] memory indexes;\r\n        indexes[0] = getRandomIndex(account);\r\n        \r\n        indexes[1] = indexes[0];\r\n        while(indexes[1] == indexes[0]) {\r\n            indexes[1] = getRandomIndex(account);\r\n        }\r\n\r\n        indexes[2] = indexes[1];\r\n        while((indexes[2] == indexes[0]) || (indexes[2] == indexes[1])) {\r\n            indexes[2] = getRandomIndex(account);\r\n        }\r\n\r\n        return indexes;\r\n    }\r\n\r\n    // Returns array of three non-duplicating integers from 0-9\r\n    function getRandomIndex\r\n                            (\r\n                                address account\r\n                            )\r\n                            internal\r\n                            returns (uint8)\r\n    {\r\n        uint8 maxValue = 10;\r\n\r\n        // Pseudo random number...the incrementing nonce adds variation\r\n        uint8 random = uint8(uint256(keccak256(abi.encodePacked(blockhash(block.number - nonce++), account))) % maxValue);\r\n\r\n        if (nonce > 250) {\r\n            nonce = 0;  // Can only fetch blockhashes for last 256 blocks so we adapt\r\n        }\r\n\r\n        return random;\r\n    }\r\n\r\n// endregion\r\n\r\n}   \r\n\r\n// Data contract function definitions\r\ncontract FlightSuretyData {\r\n\r\n    function isOperational() \r\n                                public \r\n                                returns (bool);\r\n\r\n    function isAuthorized\r\n                                (\r\n                                    address caller\r\n                                ) \r\n                                public returns (bool);\r\n\r\n    function isAirlineFunded\r\n                                (\r\n                                    address caller\r\n                                ) \r\n                                public returns (bool);                               \r\n\r\n    function authorizeCaller    \r\n                                (\r\n                                    address caller\r\n                                ) \r\n                                public;\r\n\r\n    function registerAirline\r\n                                (\r\n                                    address airline,\r\n                                    address _sender\r\n                                ) \r\n                                external;\r\n\r\n                            \r\n    function isAirline\r\n                                (\r\n                                    address airline\r\n                                ) \r\n                                public returns (bool);\r\n\r\n    function registerFlight\r\n                                (\r\n                                    address airline,\r\n                                    string flightCode,\r\n                                    uint256 timestamp\r\n                                ) \r\n                                external;                               \r\n \r\n    function fund\r\n                                (\r\n                                    address sender                                )\r\n                                public\r\n                                payable;\r\n\r\n    function buy\r\n                                (\r\n                                    address insuree,\r\n                                    address airline,\r\n                                    string flight,\r\n                                    uint256 timestamp\r\n                               )\r\n                                external\r\n                                payable;\r\n\r\n    function pay\r\n                                (\r\n                                    address passenger,                              \r\n                                    address airline,\r\n                                    string flightCode,\r\n                                    uint256 timestamp\r\n                                )\r\n                                external\r\n                                payable;\r\n\r\n    function creditInsurees\r\n                                (\r\n                                    address airline, \r\n                                    string flight, \r\n                                    uint256 timestamp\r\n                                )\r\n                                external;\r\n    function checkCredit\r\n                                (\r\n                                    address passenger\r\n                                )\r\n                                    view\r\n                                    external\r\n                                    returns(uint256);\r\n}",
  "sourcePath": "C:/Users/mavridis/Documents/blk/FlightSurety/contracts/FlightSuretyApp.sol",
  "compiler": {
    "name": "solc",
    "version": "0.4.25+commit.59dbf8f1.Emscripten.clang"
  },
  "schemaVersion": "3.0.6",
  "updatedAt": "2019-04-23T07:09:15.869Z",
  "devdoc": {
    "methods": {
      "buy(address,string,uint256)": {
        "details": "Buy insurance for flight\r     "
      },
      "fund()": {
        "details": "Fund the airline\r     "
      },
      "processFlightStatus(address,string,uint256,uint8)": {
        "details": "Called after oracle has updated flight status\r     "
      },
      "registerAirline(address)": {
        "details": "Add an airline to the registration queue\r     "
      },
      "registerFlight(address,string,uint256)": {
        "details": "Register a future flight for insuring.\r     "
      }
    }
  },
  "userdoc": {
    "methods": {
      "isOperational()": {
        "notice": "*****************************************************************************************"
      }
    }
  }
}